{
  "_format": "hh-sol-artifact-1",
  "contractName": "FarmingContract",
  "sourceName": "contracts/FarmingContract.sol",
  "abi": [
    {
      "inputs": [
        {
          "internalType": "address",
          "name": "_seedNFT",
          "type": "address"
        },
        {
          "internalType": "address",
          "name": "_dirtToken",
          "type": "address"
        }
      ],
      "stateMutability": "nonpayable",
      "type": "constructor"
    },
    {
      "inputs": [
        {
          "internalType": "address",
          "name": "owner",
          "type": "address"
        }
      ],
      "name": "OwnableInvalidOwner",
      "type": "error"
    },
    {
      "inputs": [
        {
          "internalType": "address",
          "name": "account",
          "type": "address"
        }
      ],
      "name": "OwnableUnauthorizedAccount",
      "type": "error"
    },
    {
      "anonymous": false,
      "inputs": [
        {
          "indexed": true,
          "internalType": "address",
          "name": "previousOwner",
          "type": "address"
        },
        {
          "indexed": true,
          "internalType": "address",
          "name": "newOwner",
          "type": "address"
        }
      ],
      "name": "OwnershipTransferred",
      "type": "event"
    },
    {
      "anonymous": false,
      "inputs": [
        {
          "indexed": true,
          "internalType": "address",
          "name": "user",
          "type": "address"
        },
        {
          "indexed": false,
          "internalType": "uint256",
          "name": "plotId",
          "type": "uint256"
        },
        {
          "indexed": false,
          "internalType": "string",
          "name": "plantType",
          "type": "string"
        },
        {
          "indexed": false,
          "internalType": "string",
          "name": "rarity",
          "type": "string"
        },
        {
          "indexed": false,
          "internalType": "uint256",
          "name": "health",
          "type": "uint256"
        }
      ],
      "name": "PlantHarvested",
      "type": "event"
    },
    {
      "inputs": [],
      "name": "GROWTH_TIME",
      "outputs": [
        {
          "internalType": "uint256",
          "name": "",
          "type": "uint256"
        }
      ],
      "stateMutability": "view",
      "type": "function"
    },
    {
      "inputs": [],
      "name": "INTERACTION_COOLDOWN",
      "outputs": [
        {
          "internalType": "uint256",
          "name": "",
          "type": "uint256"
        }
      ],
      "stateMutability": "view",
      "type": "function"
    },
    {
      "inputs": [],
      "name": "dirtToken",
      "outputs": [
        {
          "internalType": "contract DIRTToken",
          "name": "",
          "type": "address"
        }
      ],
      "stateMutability": "view",
      "type": "function"
    },
    {
      "inputs": [
        {
          "internalType": "address",
          "name": "user",
          "type": "address"
        },
        {
          "internalType": "uint256",
          "name": "plotId",
          "type": "uint256"
        }
      ],
      "name": "getPlant",
      "outputs": [
        {
          "components": [
            {
              "internalType": "uint256",
              "name": "plotId",
              "type": "uint256"
            },
            {
              "internalType": "uint256",
              "name": "health",
              "type": "uint256"
            },
            {
              "internalType": "uint256",
              "name": "plantedAt",
              "type": "uint256"
            },
            {
              "internalType": "uint256",
              "name": "lastInteraction",
              "type": "uint256"
            },
            {
              "internalType": "uint256",
              "name": "plantedSeedId",
              "type": "uint256"
            },
            {
              "internalType": "string",
              "name": "plantType",
              "type": "string"
            },
            {
              "internalType": "string",
              "name": "rarity",
              "type": "string"
            },
            {
              "internalType": "string",
              "name": "emoji",
              "type": "string"
            },
            {
              "internalType": "bool",
              "name": "isHarvested",
              "type": "bool"
            }
          ],
          "internalType": "struct FarmingContract.Plant",
          "name": "",
          "type": "tuple"
        }
      ],
      "stateMutability": "view",
      "type": "function"
    },
    {
      "inputs": [
        {
          "internalType": "address",
          "name": "user",
          "type": "address"
        },
        {
          "internalType": "uint256",
          "name": "plotId",
          "type": "uint256"
        },
        {
          "internalType": "uint256",
          "name": "day",
          "type": "uint256"
        }
      ],
      "name": "getPlantInteraction",
      "outputs": [
        {
          "components": [
            {
              "internalType": "uint256",
              "name": "day",
              "type": "uint256"
            },
            {
              "internalType": "string",
              "name": "action",
              "type": "string"
            },
            {
              "internalType": "string",
              "name": "outcome",
              "type": "string"
            }
          ],
          "internalType": "struct FarmingContract.Interaction",
          "name": "",
          "type": "tuple"
        }
      ],
      "stateMutability": "view",
      "type": "function"
    },
    {
      "inputs": [
        {
          "internalType": "address",
          "name": "user",
          "type": "address"
        }
      ],
      "name": "getUserPlants",
      "outputs": [
        {
          "components": [
            {
              "internalType": "uint256",
              "name": "plotId",
              "type": "uint256"
            },
            {
              "internalType": "uint256",
              "name": "health",
              "type": "uint256"
            },
            {
              "internalType": "uint256",
              "name": "plantedAt",
              "type": "uint256"
            },
            {
              "internalType": "uint256",
              "name": "lastInteraction",
              "type": "uint256"
            },
            {
              "internalType": "uint256",
              "name": "plantedSeedId",
              "type": "uint256"
            },
            {
              "internalType": "string",
              "name": "plantType",
              "type": "string"
            },
            {
              "internalType": "string",
              "name": "rarity",
              "type": "string"
            },
            {
              "internalType": "string",
              "name": "emoji",
              "type": "string"
            },
            {
              "internalType": "bool",
              "name": "isHarvested",
              "type": "bool"
            }
          ],
          "internalType": "struct FarmingContract.Plant[]",
          "name": "",
          "type": "tuple[]"
        }
      ],
      "stateMutability": "view",
      "type": "function"
    },
    {
      "inputs": [
        {
          "internalType": "uint256",
          "name": "plotId",
          "type": "uint256"
        }
      ],
      "name": "harvestPlant",
      "outputs": [],
      "stateMutability": "nonpayable",
      "type": "function"
    },
    {
      "inputs": [
        {
          "internalType": "uint256",
          "name": "plotId",
          "type": "uint256"
        },
        {
          "internalType": "string",
          "name": "action",
          "type": "string"
        }
      ],
      "name": "interactWithPlant",
      "outputs": [],
      "stateMutability": "nonpayable",
      "type": "function"
    },
    {
      "inputs": [
        {
          "internalType": "address",
          "name": "user",
          "type": "address"
        },
        {
          "internalType": "uint256",
          "name": "plotId",
          "type": "uint256"
        }
      ],
      "name": "isPlotOccupied",
      "outputs": [
        {
          "internalType": "bool",
          "name": "",
          "type": "bool"
        }
      ],
      "stateMutability": "view",
      "type": "function"
    },
    {
      "inputs": [],
      "name": "owner",
      "outputs": [
        {
          "internalType": "address",
          "name": "",
          "type": "address"
        }
      ],
      "stateMutability": "view",
      "type": "function"
    },
    {
      "inputs": [
        {
          "internalType": "address",
          "name": "",
          "type": "address"
        },
        {
          "internalType": "uint256",
          "name": "",
          "type": "uint256"
        },
        {
          "internalType": "uint256",
          "name": "",
          "type": "uint256"
        }
      ],
      "name": "plantInteractions",
      "outputs": [
        {
          "internalType": "uint256",
          "name": "day",
          "type": "uint256"
        },
        {
          "internalType": "string",
          "name": "action",
          "type": "string"
        },
        {
          "internalType": "string",
          "name": "outcome",
          "type": "string"
        }
      ],
      "stateMutability": "view",
      "type": "function"
    },
    {
      "inputs": [
        {
          "internalType": "uint256",
          "name": "seedId",
          "type": "uint256"
        },
        {
          "internalType": "uint256",
          "name": "plotId",
          "type": "uint256"
        }
      ],
      "name": "plantSeed",
      "outputs": [],
      "stateMutability": "nonpayable",
      "type": "function"
    },
    {
      "inputs": [],
      "name": "renounceOwnership",
      "outputs": [],
      "stateMutability": "nonpayable",
      "type": "function"
    },
    {
      "inputs": [],
      "name": "seedNFT",
      "outputs": [
        {
          "internalType": "contract SeedNFT",
          "name": "",
          "type": "address"
        }
      ],
      "stateMutability": "view",
      "type": "function"
    },
    {
      "inputs": [
        {
          "internalType": "address",
          "name": "newOwner",
          "type": "address"
        }
      ],
      "name": "transferOwnership",
      "outputs": [],
      "stateMutability": "nonpayable",
      "type": "function"
    },
    {
      "inputs": [
        {
          "internalType": "address",
          "name": "",
          "type": "address"
        },
        {
          "internalType": "uint256",
          "name": "",
          "type": "uint256"
        }
      ],
      "name": "userPlants",
      "outputs": [
        {
          "internalType": "uint256",
          "name": "plotId",
          "type": "uint256"
        },
        {
          "internalType": "uint256",
          "name": "health",
          "type": "uint256"
        },
        {
          "internalType": "uint256",
          "name": "plantedAt",
          "type": "uint256"
        },
        {
          "internalType": "uint256",
          "name": "lastInteraction",
          "type": "uint256"
        },
        {
          "internalType": "uint256",
          "name": "plantedSeedId",
          "type": "uint256"
        },
        {
          "internalType": "string",
          "name": "plantType",
          "type": "string"
        },
        {
          "internalType": "string",
          "name": "rarity",
          "type": "string"
        },
        {
          "internalType": "string",
          "name": "emoji",
          "type": "string"
        },
        {
          "internalType": "bool",
          "name": "isHarvested",
          "type": "bool"
        }
      ],
      "stateMutability": "view",
      "type": "function"
    }
  ],
  "bytecode": "0x60806040523480156200001157600080fd5b50604051620035d0380380620035d0833981810160405281019062000037919062000277565b33600073ffffffffffffffffffffffffffffffffffffffff168173ffffffffffffffffffffffffffffffffffffffff1603620000ad5760006040517f1e4fbdf7000000000000000000000000000000000000000000000000000000008152600401620000a49190620002cf565b60405180910390fd5b620000be816200014960201b60201c565b5081600160006101000a81548173ffffffffffffffffffffffffffffffffffffffff021916908373ffffffffffffffffffffffffffffffffffffffff16021790555080600260006101000a81548173ffffffffffffffffffffffffffffffffffffffff021916908373ffffffffffffffffffffffffffffffffffffffff1602179055505050620002ec565b60008060009054906101000a900473ffffffffffffffffffffffffffffffffffffffff169050816000806101000a81548173ffffffffffffffffffffffffffffffffffffffff021916908373ffffffffffffffffffffffffffffffffffffffff1602179055508173ffffffffffffffffffffffffffffffffffffffff168173ffffffffffffffffffffffffffffffffffffffff167f8be0079c531659141344cd1fd0a4f28419497f9722a3daafe3b4186f6b6457e060405160405180910390a35050565b600080fd5b600073ffffffffffffffffffffffffffffffffffffffff82169050919050565b60006200023f8262000212565b9050919050565b620002518162000232565b81146200025d57600080fd5b50565b600081519050620002718162000246565b92915050565b600080604083850312156200029157620002906200020d565b5b6000620002a18582860162000260565b9250506020620002b48582860162000260565b9150509250929050565b620002c98162000232565b82525050565b6000602082019050620002e66000830184620002be565b92915050565b6132d480620002fc6000396000f3fe608060405234801561001057600080fd5b50600436106101005760003560e01c80638aee578b11610097578063e38f844811610066578063e38f8448146102b9578063f0cab623146102d5578063f2fde38b146102f3578063fdeab65c1461030f57610100565b80638aee578b146102175780638bee952c1461024f5780638da5cb5b1461027f578063b6c58d131461029d57610100565b80634454d793116100d35780634454d793146101b55780634f87e864146101d3578063715018a6146101ef57806381f62d20146101f957610100565b80630ea1463e1461010557806330cec0eb146101375780633121048b1461016757806331c9083f14610185575b600080fd5b61011f600480360381019061011a9190611dd9565b61033f565b60405161012e93929190611ecb565b60405180910390f35b610151600480360381019061014c9190611f10565b610493565b60405161015e9190612146565b60405180910390f35b61016f610868565b60405161017c9190612168565b60405180910390f35b61019f600480360381019061019a9190612183565b61086f565b6040516101ac91906121d2565b60405180910390f35b6101bd610939565b6040516101ca919061224c565b60405180910390f35b6101ed60048036038101906101e89190612267565b61095f565b005b6101f7610db9565b005b610201610dcd565b60405161020e9190612168565b60405180910390f35b610231600480360381019061022c9190612183565b610dd4565b604051610246999897969594939291906122a7565b60405180910390f35b61026960048036038101906102649190612183565b610fd4565b604051610276919061241c565b60405180910390f35b610287611243565b604051610294919061244d565b60405180910390f35b6102b760048036038101906102b2919061259d565b61126c565b005b6102d360048036038101906102ce91906125f9565b6115a4565b005b6102dd611767565b6040516102ea9190612647565b60405180910390f35b61030d60048036038101906103089190611f10565b61178d565b005b61032960048036038101906103249190611dd9565b611813565b60405161033691906126b9565b60405180910390f35b600460205282600052604060002060205281600052604060002060205280600052604060002060009250925050508060000154908060010180546103829061270a565b80601f01602080910402602001604051908101604052809291908181526020018280546103ae9061270a565b80156103fb5780601f106103d0576101008083540402835291602001916103fb565b820191906000526020600020905b8154815290600101906020018083116103de57829003601f168201915b5050505050908060020180546104109061270a565b80601f016020809104026020016040519081016040528092919081815260200182805461043c9061270a565b80156104895780601f1061045e57610100808354040283529160200191610489565b820191906000526020600020905b81548152906001019060200180831161046c57829003601f168201915b5050505050905083565b60606000600667ffffffffffffffff8111156104b2576104b1612472565b5b6040519080825280602002602001820160405280156104eb57816020015b6104d8611cc2565b8152602001906001900390816104d05790505b509050600080600190505b600681116107ac57610508858261086f565b1561079957600360008673ffffffffffffffffffffffffffffffffffffffff1673ffffffffffffffffffffffffffffffffffffffff16815260200190815260200160002060008281526020019081526020016000206040518061012001604052908160008201548152602001600182015481526020016002820154815260200160038201548152602001600482015481526020016005820180546105ab9061270a565b80601f01602080910402602001604051908101604052809291908181526020018280546105d79061270a565b80156106245780601f106105f957610100808354040283529160200191610624565b820191906000526020600020905b81548152906001019060200180831161060757829003601f168201915b5050505050815260200160068201805461063d9061270a565b80601f01602080910402602001604051908101604052809291908181526020018280546106699061270a565b80156106b65780601f1061068b576101008083540402835291602001916106b6565b820191906000526020600020905b81548152906001019060200180831161069957829003601f168201915b505050505081526020016007820180546106cf9061270a565b80601f01602080910402602001604051908101604052809291908181526020018280546106fb9061270a565b80156107485780601f1061071d57610100808354040283529160200191610748565b820191906000526020600020905b81548152906001019060200180831161072b57829003601f168201915b505050505081526020016008820160009054906101000a900460ff16151515158152505083838151811061077f5761077e61273b565b5b6020026020010181905250818061079590612799565b9250505b80806107a490612799565b9150506104f6565b5060008167ffffffffffffffff8111156107c9576107c8612472565b5b60405190808252806020026020018201604052801561080257816020015b6107ef611cc2565b8152602001906001900390816107e75790505b50905060005b8281101561085c578381815181106108235761082261273b565b5b602002602001015182828151811061083e5761083d61273b565b5b6020026020010181905250808061085490612799565b915050610808565b50809350505050919050565b62093a8081565b600080600360008573ffffffffffffffffffffffffffffffffffffffff1673ffffffffffffffffffffffffffffffffffffffff1681526020019081526020016000206000848152602001908152602001600020600201541180156109315750600360008473ffffffffffffffffffffffffffffffffffffffff1673ffffffffffffffffffffffffffffffffffffffff168152602001908152602001600020600083815260200190815260200160002060080160009054906101000a900460ff16155b905092915050565b600260009054906101000a900473ffffffffffffffffffffffffffffffffffffffff1681565b60018110158015610971575060068111155b6109b0576040517f08c379a00000000000000000000000000000000000000000000000000000000081526004016109a79061282d565b60405180910390fd5b6109ba338261086f565b156109fa576040517f08c379a00000000000000000000000000000000000000000000000000000000081526004016109f190612899565b60405180910390fd5b3373ffffffffffffffffffffffffffffffffffffffff16600160009054906101000a900473ffffffffffffffffffffffffffffffffffffffff1673ffffffffffffffffffffffffffffffffffffffff16636352211e846040518263ffffffff1660e01b8152600401610a6c9190612168565b602060405180830381865afa158015610a89573d6000803e3d6000fd5b505050506040513d601f19601f82011682018060405250810190610aad91906128ce565b73ffffffffffffffffffffffffffffffffffffffff1614610b03576040517f08c379a0000000000000000000000000000000000000000000000000000000008152600401610afa90612947565b60405180910390fd5b600080600080600160009054906101000a900473ffffffffffffffffffffffffffffffffffffffff1673ffffffffffffffffffffffffffffffffffffffff1663e3f32041876040518263ffffffff1660e01b8152600401610b649190612168565b600060405180830381865afa158015610b81573d6000803e3d6000fd5b505050506040513d6000823e3d601f19601f82011682018060405250810190610baa9190612a18565b505093509350935093508015610bf5576040517f08c379a0000000000000000000000000000000000000000000000000000000008152600401610bec90612b45565b60405180910390fd5b600160009054906101000a900473ffffffffffffffffffffffffffffffffffffffff1673ffffffffffffffffffffffffffffffffffffffff16634f87e86487876040518363ffffffff1660e01b8152600401610c52929190612b65565b600060405180830381600087803b158015610c6c57600080fd5b505af1158015610c80573d6000803e3d6000fd5b50505050604051806101200160405280868152602001603281526020014281526020016000815260200187815260200185815260200184815260200183815260200160001515815250600360003373ffffffffffffffffffffffffffffffffffffffff1673ffffffffffffffffffffffffffffffffffffffff1681526020019081526020016000206000878152602001908152602001600020600082015181600001556020820151816001015560408201518160020155606082015181600301556080820151816004015560a0820151816005019081610d609190612d30565b5060c0820151816006019081610d769190612d30565b5060e0820151816007019081610d8c9190612d30565b506101008201518160080160006101000a81548160ff021916908315150217905550905050505050505050565b610dc16119be565b610dcb6000611a45565b565b6201518081565b600360205281600052604060002060205280600052604060002060009150915050806000015490806001015490806002015490806003015490806004015490806005018054610e229061270a565b80601f0160208091040260200160405190810160405280929190818152602001828054610e4e9061270a565b8015610e9b5780601f10610e7057610100808354040283529160200191610e9b565b820191906000526020600020905b815481529060010190602001808311610e7e57829003601f168201915b505050505090806006018054610eb09061270a565b80601f0160208091040260200160405190810160405280929190818152602001828054610edc9061270a565b8015610f295780601f10610efe57610100808354040283529160200191610f29565b820191906000526020600020905b815481529060010190602001808311610f0c57829003601f168201915b505050505090806007018054610f3e9061270a565b80601f0160208091040260200160405190810160405280929190818152602001828054610f6a9061270a565b8015610fb75780601f10610f8c57610100808354040283529160200191610fb7565b820191906000526020600020905b815481529060010190602001808311610f9a57829003601f168201915b5050505050908060080160009054906101000a900460ff16905089565b610fdc611cc2565b600360008473ffffffffffffffffffffffffffffffffffffffff1673ffffffffffffffffffffffffffffffffffffffff168152602001908152602001600020600083815260200190815260200160002060405180610120016040529081600082015481526020016001820154815260200160028201548152602001600382015481526020016004820154815260200160058201805461107a9061270a565b80601f01602080910402602001604051908101604052809291908181526020018280546110a69061270a565b80156110f35780601f106110c8576101008083540402835291602001916110f3565b820191906000526020600020905b8154815290600101906020018083116110d657829003601f168201915b5050505050815260200160068201805461110c9061270a565b80601f01602080910402602001604051908101604052809291908181526020018280546111389061270a565b80156111855780601f1061115a57610100808354040283529160200191611185565b820191906000526020600020905b81548152906001019060200180831161116857829003601f168201915b5050505050815260200160078201805461119e9061270a565b80601f01602080910402602001604051908101604052809291908181526020018280546111ca9061270a565b80156112175780601f106111ec57610100808354040283529160200191611217565b820191906000526020600020905b8154815290600101906020018083116111fa57829003601f168201915b505050505081526020016008820160009054906101000a900460ff161515151581525050905092915050565b60008060009054906101000a900473ffffffffffffffffffffffffffffffffffffffff16905090565b611276338361086f565b6112b5576040517f08c379a00000000000000000000000000000000000000000000000000000000081526004016112ac90612e4e565b60405180910390fd5b6000600360003373ffffffffffffffffffffffffffffffffffffffff1673ffffffffffffffffffffffffffffffffffffffff168152602001908152602001600020600084815260200190815260200160002090508060080160009054906101000a900460ff161561135b576040517f08c379a000000000000000000000000000000000000000000000000000000000815260040161135290612eba565b60405180910390fd5b6201518081600301544261136f9190612eda565b10156113b0576040517f08c379a00000000000000000000000000000000000000000000000000000000081526004016113a790612f5a565b60405180910390fd5b6000620151808260020154426113c69190612eda565b6113d09190612fa9565b90506000600460003373ffffffffffffffffffffffffffffffffffffffff1673ffffffffffffffffffffffffffffffffffffffff168152602001908152602001600020600086815260200190815260200160002060008381526020019081526020016000206000015414611479576040517f08c379a000000000000000000000000000000000000000000000000000000000815260040161147090613026565b60405180910390fd5b6000428486604051602001611490939291906130a3565b6040516020818303038152906040528051906020012060001c905060006114b682611b09565b905060006114c382611be9565b90508085600101546114d591906130e6565b8560010181905550428560030181905550604051806060016040528085815260200187815260200183815250600460003373ffffffffffffffffffffffffffffffffffffffff1673ffffffffffffffffffffffffffffffffffffffff168152602001908152602001600020600089815260200190815260200160002060008681526020019081526020016000206000820151816000015560208201518160010190816115819190612d30565b5060408201518160020190816115979190612d30565b5090505050505050505050565b6115ae338261086f565b6115ed576040517f08c379a00000000000000000000000000000000000000000000000000000000081526004016115e490612e4e565b60405180910390fd5b6000600360003373ffffffffffffffffffffffffffffffffffffffff1673ffffffffffffffffffffffffffffffffffffffff168152602001908152602001600020600083815260200190815260200160002090508060080160009054906101000a900460ff1615611693576040517f08c379a000000000000000000000000000000000000000000000000000000000815260040161168a90612eba565b60405180910390fd5b62093a808160020154426116a79190612eda565b10156116e8576040517f08c379a00000000000000000000000000000000000000000000000000000000081526004016116df90613176565b60405180910390fd5b60018160080160006101000a81548160ff0219169083151502179055503373ffffffffffffffffffffffffffffffffffffffff167f166b898d8ee2721e7bedd68e2148c0d8107f827357e2b70b38733b2c1291ceb9838360050184600601856001015460405161175b949392919061321a565b60405180910390a25050565b600160009054906101000a900473ffffffffffffffffffffffffffffffffffffffff1681565b6117956119be565b600073ffffffffffffffffffffffffffffffffffffffff168173ffffffffffffffffffffffffffffffffffffffff16036118075760006040517f1e4fbdf70000000000000000000000000000000000000000000000000000000081526004016117fe919061244d565b60405180910390fd5b61181081611a45565b50565b61181b611d10565b600460008573ffffffffffffffffffffffffffffffffffffffff1673ffffffffffffffffffffffffffffffffffffffff16815260200190815260200160002060008481526020019081526020016000206000838152602001908152602001600020604051806060016040529081600082015481526020016001820180546118a19061270a565b80601f01602080910402602001604051908101604052809291908181526020018280546118cd9061270a565b801561191a5780601f106118ef5761010080835404028352916020019161191a565b820191906000526020600020905b8154815290600101906020018083116118fd57829003601f168201915b505050505081526020016002820180546119339061270a565b80601f016020809104026020016040519081016040528092919081815260200182805461195f9061270a565b80156119ac5780601f10611981576101008083540402835291602001916119ac565b820191906000526020600020905b81548152906001019060200180831161198f57829003601f168201915b50505050508152505090509392505050565b6119c6611cba565b73ffffffffffffffffffffffffffffffffffffffff166119e4611243565b73ffffffffffffffffffffffffffffffffffffffff1614611a4357611a07611cba565b6040517f118cdaa7000000000000000000000000000000000000000000000000000000008152600401611a3a919061244d565b60405180910390fd5b565b60008060009054906101000a900473ffffffffffffffffffffffffffffffffffffffff169050816000806101000a81548173ffffffffffffffffffffffffffffffffffffffff021916908373ffffffffffffffffffffffffffffffffffffffff1602179055508173ffffffffffffffffffffffffffffffffffffffff168173ffffffffffffffffffffffffffffffffffffffff167f8be0079c531659141344cd1fd0a4f28419497f9722a3daafe3b4186f6b6457e060405160405180910390a35050565b60606000606483611b1a919061326d565b90506028811015611b63576040518060400160405280600881526020017f706f736974697665000000000000000000000000000000000000000000000000815250915050611be4565b6046811015611baa576040518060400160405280600781526020017f6e65757472616c00000000000000000000000000000000000000000000000000815250915050611be4565b6040518060400160405280600881526020017f6e656761746976650000000000000000000000000000000000000000000000008152509150505b919050565b60006040518060400160405280600881526020017f706f73697469766500000000000000000000000000000000000000000000000081525080519060200120828051906020012003611c3e57600a9050611cb5565b6040518060400160405280600881526020017f6e6567617469766500000000000000000000000000000000000000000000000081525080519060200120828051906020012003611cb0577ffffffffffffffffffffffffffffffffffffffffffffffffffffffffffffffffb9050611cb5565b600090505b919050565b600033905090565b60405180610120016040528060008152602001600081526020016000815260200160008152602001600081526020016060815260200160608152602001606081526020016000151581525090565b60405180606001604052806000815260200160608152602001606081525090565b6000604051905090565b600080fd5b600080fd5b600073ffffffffffffffffffffffffffffffffffffffff82169050919050565b6000611d7082611d45565b9050919050565b611d8081611d65565b8114611d8b57600080fd5b50565b600081359050611d9d81611d77565b92915050565b6000819050919050565b611db681611da3565b8114611dc157600080fd5b50565b600081359050611dd381611dad565b92915050565b600080600060608486031215611df257611df1611d3b565b5b6000611e0086828701611d8e565b9350506020611e1186828701611dc4565b9250506040611e2286828701611dc4565b9150509250925092565b611e3581611da3565b82525050565b600081519050919050565b600082825260208201905092915050565b60005b83811015611e75578082015181840152602081019050611e5a565b60008484015250505050565b6000601f19601f8301169050919050565b6000611e9d82611e3b565b611ea78185611e46565b9350611eb7818560208601611e57565b611ec081611e81565b840191505092915050565b6000606082019050611ee06000830186611e2c565b8181036020830152611ef28185611e92565b90508181036040830152611f068184611e92565b9050949350505050565b600060208284031215611f2657611f25611d3b565b5b6000611f3484828501611d8e565b91505092915050565b600081519050919050565b600082825260208201905092915050565b6000819050602082019050919050565b611f7281611da3565b82525050565b600082825260208201905092915050565b6000611f9482611e3b565b611f9e8185611f78565b9350611fae818560208601611e57565b611fb781611e81565b840191505092915050565b60008115159050919050565b611fd781611fc2565b82525050565b600061012083016000830151611ff66000860182611f69565b5060208301516120096020860182611f69565b50604083015161201c6040860182611f69565b50606083015161202f6060860182611f69565b5060808301516120426080860182611f69565b5060a083015184820360a086015261205a8282611f89565b91505060c083015184820360c08601526120748282611f89565b91505060e083015184820360e086015261208e8282611f89565b9150506101008301516120a5610100860182611fce565b508091505092915050565b60006120bc8383611fdd565b905092915050565b6000602082019050919050565b60006120dc82611f3d565b6120e68185611f48565b9350836020820285016120f885611f59565b8060005b85811015612134578484038952815161211585826120b0565b9450612120836120c4565b925060208a019950506001810190506120fc565b50829750879550505050505092915050565b6000602082019050818103600083015261216081846120d1565b905092915050565b600060208201905061217d6000830184611e2c565b92915050565b6000806040838503121561219a57612199611d3b565b5b60006121a885828601611d8e565b92505060206121b985828601611dc4565b9150509250929050565b6121cc81611fc2565b82525050565b60006020820190506121e760008301846121c3565b92915050565b6000819050919050565b600061221261220d61220884611d45565b6121ed565b611d45565b9050919050565b6000612224826121f7565b9050919050565b600061223682612219565b9050919050565b6122468161222b565b82525050565b6000602082019050612261600083018461223d565b92915050565b6000806040838503121561227e5761227d611d3b565b5b600061228c85828601611dc4565b925050602061229d85828601611dc4565b9150509250929050565b6000610120820190506122bd600083018c611e2c565b6122ca602083018b611e2c565b6122d7604083018a611e2c565b6122e46060830189611e2c565b6122f16080830188611e2c565b81810360a08301526123038187611e92565b905081810360c08301526123178186611e92565b905081810360e083015261232b8185611e92565b905061233b6101008301846121c3565b9a9950505050505050505050565b6000610120830160008301516123626000860182611f69565b5060208301516123756020860182611f69565b5060408301516123886040860182611f69565b50606083015161239b6060860182611f69565b5060808301516123ae6080860182611f69565b5060a083015184820360a08601526123c68282611f89565b91505060c083015184820360c08601526123e08282611f89565b91505060e083015184820360e08601526123fa8282611f89565b915050610100830151612411610100860182611fce565b508091505092915050565b600060208201905081810360008301526124368184612349565b905092915050565b61244781611d65565b82525050565b6000602082019050612462600083018461243e565b92915050565b600080fd5b600080fd5b7f4e487b7100000000000000000000000000000000000000000000000000000000600052604160045260246000fd5b6124aa82611e81565b810181811067ffffffffffffffff821117156124c9576124c8612472565b5b80604052505050565b60006124dc611d31565b90506124e882826124a1565b919050565b600067ffffffffffffffff82111561250857612507612472565b5b61251182611e81565b9050602081019050919050565b82818337600083830152505050565b600061254061253b846124ed565b6124d2565b90508281526020810184848401111561255c5761255b61246d565b5b61256784828561251e565b509392505050565b600082601f83011261258457612583612468565b5b813561259484826020860161252d565b91505092915050565b600080604083850312156125b4576125b3611d3b565b5b60006125c285828601611dc4565b925050602083013567ffffffffffffffff8111156125e3576125e2611d40565b5b6125ef8582860161256f565b9150509250929050565b60006020828403121561260f5761260e611d3b565b5b600061261d84828501611dc4565b91505092915050565b600061263182612219565b9050919050565b61264181612626565b82525050565b600060208201905061265c6000830184612638565b92915050565b600060608301600083015161267a6000860182611f69565b50602083015184820360208601526126928282611f89565b915050604083015184820360408601526126ac8282611f89565b9150508091505092915050565b600060208201905081810360008301526126d38184612662565b905092915050565b7f4e487b7100000000000000000000000000000000000000000000000000000000600052602260045260246000fd5b6000600282049050600182168061272257607f821691505b602082108103612735576127346126db565b5b50919050565b7f4e487b7100000000000000000000000000000000000000000000000000000000600052603260045260246000fd5b7f4e487b7100000000000000000000000000000000000000000000000000000000600052601160045260246000fd5b60006127a482611da3565b91507fffffffffffffffffffffffffffffffffffffffffffffffffffffffffffffffff82036127d6576127d561276a565b5b600182019050919050565b7f496e76616c696420706c6f742049440000000000000000000000000000000000600082015250565b6000612817600f83611e46565b9150612822826127e1565b602082019050919050565b600060208201905081810360008301526128468161280a565b9050919050565b7f506c6f7420616c7265616479206f636375706965640000000000000000000000600082015250565b6000612883601583611e46565b915061288e8261284d565b602082019050919050565b600060208201905081810360008301526128b281612876565b9050919050565b6000815190506128c881611d77565b92915050565b6000602082840312156128e4576128e3611d3b565b5b60006128f2848285016128b9565b91505092915050565b7f4e6f74206f776e6572206f662073656564000000000000000000000000000000600082015250565b6000612931601183611e46565b915061293c826128fb565b602082019050919050565b6000602082019050818103600083015261296081612924565b9050919050565b600061297a612975846124ed565b6124d2565b9050828152602081018484840111156129965761299561246d565b5b6129a1848285611e57565b509392505050565b600082601f8301126129be576129bd612468565b5b81516129ce848260208601612967565b91505092915050565b6129e081611fc2565b81146129eb57600080fd5b50565b6000815190506129fd816129d7565b92915050565b600081519050612a1281611dad565b92915050565b60008060008060008060c08789031215612a3557612a34611d3b565b5b600087015167ffffffffffffffff811115612a5357612a52611d40565b5b612a5f89828a016129a9565b965050602087015167ffffffffffffffff811115612a8057612a7f611d40565b5b612a8c89828a016129a9565b955050604087015167ffffffffffffffff811115612aad57612aac611d40565b5b612ab989828a016129a9565b9450506060612aca89828a016129ee565b9350506080612adb89828a01612a03565b92505060a0612aec89828a01612a03565b9150509295509295509295565b7f5365656420616c726561647920706c616e746564000000000000000000000000600082015250565b6000612b2f601483611e46565b9150612b3a82612af9565b602082019050919050565b60006020820190508181036000830152612b5e81612b22565b9050919050565b6000604082019050612b7a6000830185611e2c565b612b876020830184611e2c565b9392505050565b60008190508160005260206000209050919050565b60006020601f8301049050919050565b600082821b905092915050565b600060088302612bf07fffffffffffffffffffffffffffffffffffffffffffffffffffffffffffffffff82612bb3565b612bfa8683612bb3565b95508019841693508086168417925050509392505050565b6000612c2d612c28612c2384611da3565b6121ed565b611da3565b9050919050565b6000819050919050565b612c4783612c12565b612c5b612c5382612c34565b848454612bc0565b825550505050565b600090565b612c70612c63565b612c7b818484612c3e565b505050565b5b81811015612c9f57612c94600082612c68565b600181019050612c81565b5050565b601f821115612ce457612cb581612b8e565b612cbe84612ba3565b81016020851015612ccd578190505b612ce1612cd985612ba3565b830182612c80565b50505b505050565b600082821c905092915050565b6000612d0760001984600802612ce9565b1980831691505092915050565b6000612d208383612cf6565b9150826002028217905092915050565b612d3982611e3b565b67ffffffffffffffff811115612d5257612d51612472565b5b612d5c825461270a565b612d67828285612ca3565b600060209050601f831160018114612d9a5760008415612d88578287015190505b612d928582612d14565b865550612dfa565b601f198416612da886612b8e565b60005b82811015612dd057848901518255600182019150602085019450602081019050612dab565b86831015612ded5784890151612de9601f891682612cf6565b8355505b6001600288020188555050505b505050505050565b7f506c6f74206e6f74206f63637570696564000000000000000000000000000000600082015250565b6000612e38601183611e46565b9150612e4382612e02565b602082019050919050565b60006020820190508181036000830152612e6781612e2b565b9050919050565b7f506c616e7420616c726561647920686172766573746564000000000000000000600082015250565b6000612ea4601783611e46565b9150612eaf82612e6e565b602082019050919050565b60006020820190508181036000830152612ed381612e97565b9050919050565b6000612ee582611da3565b9150612ef083611da3565b9250828203905081811115612f0857612f0761276a565b5b92915050565b7f496e746572616374696f6e20636f6f6c646f776e000000000000000000000000600082015250565b6000612f44601483611e46565b9150612f4f82612f0e565b602082019050919050565b60006020820190508181036000830152612f7381612f37565b9050919050565b7f4e487b7100000000000000000000000000000000000000000000000000000000600052601260045260246000fd5b6000612fb482611da3565b9150612fbf83611da3565b925082612fcf57612fce612f7a565b5b828204905092915050565b7f416c726561647920696e746572616374656420746f6461790000000000000000600082015250565b6000613010601883611e46565b915061301b82612fda565b602082019050919050565b6000602082019050818103600083015261303f81613003565b9050919050565b6000819050919050565b61306161305c82611da3565b613046565b82525050565b600081905092915050565b600061307d82611e3b565b6130878185613067565b9350613097818560208601611e57565b80840191505092915050565b60006130af8286613050565b6020820191506130bf8285613072565b91506130cb8284613050565b602082019150819050949350505050565b6000819050919050565b60006130f1826130dc565b91506130fc836130dc565b9250828201905082811215600083121683821260008412151617156131245761312361276a565b5b92915050565b7f506c616e74206e6f7420726561647920666f7220686172766573740000000000600082015250565b6000613160601b83611e46565b915061316b8261312a565b602082019050919050565b6000602082019050818103600083015261318f81613153565b9050919050565b600081546131a38161270a565b6131ad8186611e46565b945060018216600081146131c857600181146131de57613211565b60ff198316865281151560200286019350613211565b6131e785612b8e565b60005b83811015613209578154818901526001820191506020810190506131ea565b808801955050505b50505092915050565b600060808201905061322f6000830187611e2c565b81810360208301526132418186613196565b905081810360408301526132558185613196565b90506132646060830184611e2c565b95945050505050565b600061327882611da3565b915061328383611da3565b92508261329357613292612f7a565b5b82820690509291505056fea26469706673582212208af779af1342c8f3d066ddfb5a889c7d90848239a21253318f0be7b38face34c64736f6c63430008140033",
  "linkReferences": {},
  "deployedLinkReferences": {}
}