{
  "_format": "hh-sol-artifact-1",
  "contractName": "SeedNFT",
  "sourceName": "contracts/SeedNFT.sol",
  "abi": [
    {
      "inputs": [
        {
          "internalType": "address",
          "name": "_dirtToken",
          "type": "address"
        }
      ],
      "stateMutability": "nonpayable",
      "type": "constructor"
    },
    {
      "inputs": [
        {
          "internalType": "address",
          "name": "sender",
          "type": "address"
        },
        {
          "internalType": "uint256",
          "name": "tokenId",
          "type": "uint256"
        },
        {
          "internalType": "address",
          "name": "owner",
          "type": "address"
        }
      ],
      "name": "ERC721IncorrectOwner",
      "type": "error"
    },
    {
      "inputs": [
        {
          "internalType": "address",
          "name": "operator",
          "type": "address"
        },
        {
          "internalType": "uint256",
          "name": "tokenId",
          "type": "uint256"
        }
      ],
      "name": "ERC721InsufficientApproval",
      "type": "error"
    },
    {
      "inputs": [
        {
          "internalType": "address",
          "name": "approver",
          "type": "address"
        }
      ],
      "name": "ERC721InvalidApprover",
      "type": "error"
    },
    {
      "inputs": [
        {
          "internalType": "address",
          "name": "operator",
          "type": "address"
        }
      ],
      "name": "ERC721InvalidOperator",
      "type": "error"
    },
    {
      "inputs": [
        {
          "internalType": "address",
          "name": "owner",
          "type": "address"
        }
      ],
      "name": "ERC721InvalidOwner",
      "type": "error"
    },
    {
      "inputs": [
        {
          "internalType": "address",
          "name": "receiver",
          "type": "address"
        }
      ],
      "name": "ERC721InvalidReceiver",
      "type": "error"
    },
    {
      "inputs": [
        {
          "internalType": "address",
          "name": "sender",
          "type": "address"
        }
      ],
      "name": "ERC721InvalidSender",
      "type": "error"
    },
    {
      "inputs": [
        {
          "internalType": "uint256",
          "name": "tokenId",
          "type": "uint256"
        }
      ],
      "name": "ERC721NonexistentToken",
      "type": "error"
    },
    {
      "inputs": [
        {
          "internalType": "address",
          "name": "owner",
          "type": "address"
        }
      ],
      "name": "OwnableInvalidOwner",
      "type": "error"
    },
    {
      "inputs": [
        {
          "internalType": "address",
          "name": "account",
          "type": "address"
        }
      ],
      "name": "OwnableUnauthorizedAccount",
      "type": "error"
    },
    {
      "anonymous": false,
      "inputs": [
        {
          "indexed": true,
          "internalType": "address",
          "name": "owner",
          "type": "address"
        },
        {
          "indexed": true,
          "internalType": "address",
          "name": "approved",
          "type": "address"
        },
        {
          "indexed": true,
          "internalType": "uint256",
          "name": "tokenId",
          "type": "uint256"
        }
      ],
      "name": "Approval",
      "type": "event"
    },
    {
      "anonymous": false,
      "inputs": [
        {
          "indexed": true,
          "internalType": "address",
          "name": "owner",
          "type": "address"
        },
        {
          "indexed": true,
          "internalType": "address",
          "name": "operator",
          "type": "address"
        },
        {
          "indexed": false,
          "internalType": "bool",
          "name": "approved",
          "type": "bool"
        }
      ],
      "name": "ApprovalForAll",
      "type": "event"
    },
    {
      "anonymous": false,
      "inputs": [
        {
          "indexed": false,
          "internalType": "uint256",
          "name": "_fromTokenId",
          "type": "uint256"
        },
        {
          "indexed": false,
          "internalType": "uint256",
          "name": "_toTokenId",
          "type": "uint256"
        }
      ],
      "name": "BatchMetadataUpdate",
      "type": "event"
    },
    {
      "anonymous": false,
      "inputs": [
        {
          "indexed": false,
          "internalType": "uint256",
          "name": "_tokenId",
          "type": "uint256"
        }
      ],
      "name": "MetadataUpdate",
      "type": "event"
    },
    {
      "anonymous": false,
      "inputs": [
        {
          "indexed": true,
          "internalType": "address",
          "name": "previousOwner",
          "type": "address"
        },
        {
          "indexed": true,
          "internalType": "address",
          "name": "newOwner",
          "type": "address"
        }
      ],
      "name": "OwnershipTransferred",
      "type": "event"
    },
    {
      "anonymous": false,
      "inputs": [
        {
          "indexed": true,
          "internalType": "address",
          "name": "from",
          "type": "address"
        },
        {
          "indexed": true,
          "internalType": "address",
          "name": "to",
          "type": "address"
        },
        {
          "indexed": true,
          "internalType": "uint256",
          "name": "tokenId",
          "type": "uint256"
        }
      ],
      "name": "Transfer",
      "type": "event"
    },
    {
      "inputs": [
        {
          "internalType": "address",
          "name": "to",
          "type": "address"
        },
        {
          "internalType": "uint256",
          "name": "tokenId",
          "type": "uint256"
        }
      ],
      "name": "approve",
      "outputs": [],
      "stateMutability": "nonpayable",
      "type": "function"
    },
    {
      "inputs": [
        {
          "internalType": "address",
          "name": "owner",
          "type": "address"
        }
      ],
      "name": "balanceOf",
      "outputs": [
        {
          "internalType": "uint256",
          "name": "",
          "type": "uint256"
        }
      ],
      "stateMutability": "view",
      "type": "function"
    },
    {
      "inputs": [],
      "name": "dirtToken",
      "outputs": [
        {
          "internalType": "address",
          "name": "",
          "type": "address"
        }
      ],
      "stateMutability": "view",
      "type": "function"
    },
    {
      "inputs": [
        {
          "internalType": "uint256",
          "name": "",
          "type": "uint256"
        }
      ],
      "name": "emojis",
      "outputs": [
        {
          "internalType": "string",
          "name": "",
          "type": "string"
        }
      ],
      "stateMutability": "view",
      "type": "function"
    },
    {
      "inputs": [
        {
          "internalType": "uint256",
          "name": "tokenId",
          "type": "uint256"
        }
      ],
      "name": "getApproved",
      "outputs": [
        {
          "internalType": "address",
          "name": "",
          "type": "address"
        }
      ],
      "stateMutability": "view",
      "type": "function"
    },
    {
      "inputs": [
        {
          "internalType": "address",
          "name": "user",
          "type": "address"
        }
      ],
      "name": "getUnplantedSeeds",
      "outputs": [
        {
          "internalType": "uint256[]",
          "name": "",
          "type": "uint256[]"
        }
      ],
      "stateMutability": "view",
      "type": "function"
    },
    {
      "inputs": [
        {
          "internalType": "address",
          "name": "owner",
          "type": "address"
        },
        {
          "internalType": "address",
          "name": "operator",
          "type": "address"
        }
      ],
      "name": "isApprovedForAll",
      "outputs": [
        {
          "internalType": "bool",
          "name": "",
          "type": "bool"
        }
      ],
      "stateMutability": "view",
      "type": "function"
    },
    {
      "inputs": [],
      "name": "mintPrice",
      "outputs": [
        {
          "internalType": "uint256",
          "name": "",
          "type": "uint256"
        }
      ],
      "stateMutability": "view",
      "type": "function"
    },
    {
      "inputs": [],
      "name": "mintSeed",
      "outputs": [],
      "stateMutability": "nonpayable",
      "type": "function"
    },
    {
      "inputs": [],
      "name": "name",
      "outputs": [
        {
          "internalType": "string",
          "name": "",
          "type": "string"
        }
      ],
      "stateMutability": "view",
      "type": "function"
    },
    {
      "inputs": [],
      "name": "owner",
      "outputs": [
        {
          "internalType": "address",
          "name": "",
          "type": "address"
        }
      ],
      "stateMutability": "view",
      "type": "function"
    },
    {
      "inputs": [
        {
          "internalType": "uint256",
          "name": "tokenId",
          "type": "uint256"
        }
      ],
      "name": "ownerOf",
      "outputs": [
        {
          "internalType": "address",
          "name": "",
          "type": "address"
        }
      ],
      "stateMutability": "view",
      "type": "function"
    },
    {
      "inputs": [
        {
          "internalType": "uint256",
          "name": "tokenId",
          "type": "uint256"
        },
        {
          "internalType": "uint256",
          "name": "plotId",
          "type": "uint256"
        }
      ],
      "name": "plantSeed",
      "outputs": [],
      "stateMutability": "nonpayable",
      "type": "function"
    },
    {
      "inputs": [
        {
          "internalType": "uint256",
          "name": "",
          "type": "uint256"
        }
      ],
      "name": "probabilities",
      "outputs": [
        {
          "internalType": "uint256",
          "name": "",
          "type": "uint256"
        }
      ],
      "stateMutability": "view",
      "type": "function"
    },
    {
      "inputs": [
        {
          "internalType": "uint256",
          "name": "",
          "type": "uint256"
        }
      ],
      "name": "rarities",
      "outputs": [
        {
          "internalType": "string",
          "name": "",
          "type": "string"
        }
      ],
      "stateMutability": "view",
      "type": "function"
    },
    {
      "inputs": [],
      "name": "renounceOwnership",
      "outputs": [],
      "stateMutability": "nonpayable",
      "type": "function"
    },
    {
      "inputs": [
        {
          "internalType": "address",
          "name": "from",
          "type": "address"
        },
        {
          "internalType": "address",
          "name": "to",
          "type": "address"
        },
        {
          "internalType": "uint256",
          "name": "tokenId",
          "type": "uint256"
        }
      ],
      "name": "safeTransferFrom",
      "outputs": [],
      "stateMutability": "nonpayable",
      "type": "function"
    },
    {
      "inputs": [
        {
          "internalType": "address",
          "name": "from",
          "type": "address"
        },
        {
          "internalType": "address",
          "name": "to",
          "type": "address"
        },
        {
          "internalType": "uint256",
          "name": "tokenId",
          "type": "uint256"
        },
        {
          "internalType": "bytes",
          "name": "data",
          "type": "bytes"
        }
      ],
      "name": "safeTransferFrom",
      "outputs": [],
      "stateMutability": "nonpayable",
      "type": "function"
    },
    {
      "inputs": [
        {
          "internalType": "uint256",
          "name": "",
          "type": "uint256"
        }
      ],
      "name": "seedMetadata",
      "outputs": [
        {
          "internalType": "string",
          "name": "seedType",
          "type": "string"
        },
        {
          "internalType": "string",
          "name": "rarity",
          "type": "string"
        },
        {
          "internalType": "string",
          "name": "emoji",
          "type": "string"
        },
        {
          "internalType": "bool",
          "name": "isPlanted",
          "type": "bool"
        },
        {
          "internalType": "uint256",
          "name": "plantedPlotId",
          "type": "uint256"
        },
        {
          "internalType": "uint256",
          "name": "mintedAt",
          "type": "uint256"
        }
      ],
      "stateMutability": "view",
      "type": "function"
    },
    {
      "inputs": [
        {
          "internalType": "uint256",
          "name": "",
          "type": "uint256"
        }
      ],
      "name": "seedTypes",
      "outputs": [
        {
          "internalType": "string",
          "name": "",
          "type": "string"
        }
      ],
      "stateMutability": "view",
      "type": "function"
    },
    {
      "inputs": [
        {
          "internalType": "address",
          "name": "operator",
          "type": "address"
        },
        {
          "internalType": "bool",
          "name": "approved",
          "type": "bool"
        }
      ],
      "name": "setApprovalForAll",
      "outputs": [],
      "stateMutability": "nonpayable",
      "type": "function"
    },
    {
      "inputs": [
        {
          "internalType": "bytes4",
          "name": "interfaceId",
          "type": "bytes4"
        }
      ],
      "name": "supportsInterface",
      "outputs": [
        {
          "internalType": "bool",
          "name": "",
          "type": "bool"
        }
      ],
      "stateMutability": "view",
      "type": "function"
    },
    {
      "inputs": [],
      "name": "symbol",
      "outputs": [
        {
          "internalType": "string",
          "name": "",
          "type": "string"
        }
      ],
      "stateMutability": "view",
      "type": "function"
    },
    {
      "inputs": [
        {
          "internalType": "uint256",
          "name": "tokenId",
          "type": "uint256"
        }
      ],
      "name": "tokenURI",
      "outputs": [
        {
          "internalType": "string",
          "name": "",
          "type": "string"
        }
      ],
      "stateMutability": "view",
      "type": "function"
    },
    {
      "inputs": [
        {
          "internalType": "address",
          "name": "from",
          "type": "address"
        },
        {
          "internalType": "address",
          "name": "to",
          "type": "address"
        },
        {
          "internalType": "uint256",
          "name": "tokenId",
          "type": "uint256"
        }
      ],
      "name": "transferFrom",
      "outputs": [],
      "stateMutability": "nonpayable",
      "type": "function"
    },
    {
      "inputs": [
        {
          "internalType": "address",
          "name": "newOwner",
          "type": "address"
        }
      ],
      "name": "transferOwnership",
      "outputs": [],
      "stateMutability": "nonpayable",
      "type": "function"
    }
  ],
  "bytecode": "0x608060405267d02ab486cedc0000600a5560405180608001604052806040518060400160405280600481526020017f436f726e0000000000000000000000000000000000000000000000000000000081525081526020016040518060400160405280600681526020017f436172726f74000000000000000000000000000000000000000000000000000081525081526020016040518060400160405280600981526020017f53756e666c6f776572000000000000000000000000000000000000000000000081525081526020016040518060400160405280600881526020017f43616e6e61626973000000000000000000000000000000000000000000000000815250815250600c90600462000117929190620005c7565b5060405180608001604052806040518060400160405280600681526020017f436f6d6d6f6e000000000000000000000000000000000000000000000000000081525081526020016040518060400160405280600481526020017f526172650000000000000000000000000000000000000000000000000000000081525081526020016040518060400160405280600981526020017f4c6567656e64617279000000000000000000000000000000000000000000000081525081526020016040518060400160405280600481526020017f4570696300000000000000000000000000000000000000000000000000000000815250815250600d9060046200021f929190620005c7565b5060405180608001604052806040518060400160405280600481526020017f636f726e0000000000000000000000000000000000000000000000000000000081525081526020016040518060400160405280600681526020017f636172726f74000000000000000000000000000000000000000000000000000081525081526020016040518060400160405280600981526020017f73756e666c6f776572000000000000000000000000000000000000000000000081525081526020016040518060400160405280600881526020017f63616e6e61626973000000000000000000000000000000000000000000000000815250815250600e90600462000327929190620005c7565b506040518060800160405280602860ff168152602001601e60ff168152602001601460ff168152602001600a60ff16815250600f9060046200036b92919062000627565b503480156200037957600080fd5b50604051620043bb380380620043bb83398181016040528101906200039f919062000775565b336040518060400160405280600781526020017f536565644e4654000000000000000000000000000000000000000000000000008152506040518060400160405280600481526020017f534545440000000000000000000000000000000000000000000000000000000081525081600090816200041d919062000a21565b5080600190816200042f919062000a21565b505050600073ffffffffffffffffffffffffffffffffffffffff168173ffffffffffffffffffffffffffffffffffffffff1603620004a75760006040517f1e4fbdf70000000000000000000000000000000000000000000000000000000081526004016200049e919062000b19565b60405180910390fd5b620004b8816200050160201b60201c565b5080600960006101000a81548173ffffffffffffffffffffffffffffffffffffffff021916908373ffffffffffffffffffffffffffffffffffffffff1602179055505062000b36565b6000600760009054906101000a900473ffffffffffffffffffffffffffffffffffffffff16905081600760006101000a81548173ffffffffffffffffffffffffffffffffffffffff021916908373ffffffffffffffffffffffffffffffffffffffff1602179055508173ffffffffffffffffffffffffffffffffffffffff168173ffffffffffffffffffffffffffffffffffffffff167f8be0079c531659141344cd1fd0a4f28419497f9722a3daafe3b4186f6b6457e060405160405180910390a35050565b82805482825590600052602060002090810192821562000614579160200282015b828111156200061357825182908162000602919062000a21565b5091602001919060010190620005e8565b5b5090506200062391906200067e565b5090565b8280548282559060005260206000209081019282156200066b579160200282015b828111156200066a578251829060ff1690559160200191906001019062000648565b5b5090506200067a9190620006a6565b5090565b5b80821115620006a25760008181620006989190620006c5565b506001016200067f565b5090565b5b80821115620006c1576000816000905550600101620006a7565b5090565b508054620006d39062000810565b6000825580601f10620006e7575062000708565b601f016020900490600052602060002090810190620007079190620006a6565b5b50565b600080fd5b600073ffffffffffffffffffffffffffffffffffffffff82169050919050565b60006200073d8262000710565b9050919050565b6200074f8162000730565b81146200075b57600080fd5b50565b6000815190506200076f8162000744565b92915050565b6000602082840312156200078e576200078d6200070b565b5b60006200079e848285016200075e565b91505092915050565b600081519050919050565b7f4e487b7100000000000000000000000000000000000000000000000000000000600052604160045260246000fd5b7f4e487b7100000000000000000000000000000000000000000000000000000000600052602260045260246000fd5b600060028204905060018216806200082957607f821691505b6020821081036200083f576200083e620007e1565b5b50919050565b60008190508160005260206000209050919050565b60006020601f8301049050919050565b600082821b905092915050565b600060088302620008a97fffffffffffffffffffffffffffffffffffffffffffffffffffffffffffffffff826200086a565b620008b586836200086a565b95508019841693508086168417925050509392505050565b6000819050919050565b6000819050919050565b600062000902620008fc620008f684620008cd565b620008d7565b620008cd565b9050919050565b6000819050919050565b6200091e83620008e1565b620009366200092d8262000909565b84845462000877565b825550505050565b600090565b6200094d6200093e565b6200095a81848462000913565b505050565b5b8181101562000982576200097660008262000943565b60018101905062000960565b5050565b601f821115620009d1576200099b8162000845565b620009a6846200085a565b81016020851015620009b6578190505b620009ce620009c5856200085a565b8301826200095f565b50505b505050565b600082821c905092915050565b6000620009f660001984600802620009d6565b1980831691505092915050565b600062000a118383620009e3565b9150826002028217905092915050565b62000a2c82620007a7565b67ffffffffffffffff81111562000a485762000a47620007b2565b5b62000a54825462000810565b62000a6182828562000986565b600060209050601f83116001811462000a99576000841562000a84578287015190505b62000a90858262000a03565b86555062000b00565b601f19841662000aa98662000845565b60005b8281101562000ad35784890151825560018201915060208501945060208101905062000aac565b8683101562000af3578489015162000aef601f891682620009e3565b8355505b6001600288020188555050505b505050505050565b62000b138162000730565b82525050565b600060208201905062000b30600083018462000b08565b92915050565b6138758062000b466000396000f3fe608060405234801561001057600080fd5b506004361061018e5760003560e01c8063715018a6116100de578063b88d4fde11610097578063e985e9c511610071578063e985e9c51461049a578063f2fde38b146104ca578063f3c2f327146104e6578063f8833efd146105165761018e565b8063b88d4fde14610419578063c87b56dd14610435578063e3f32041146104655761018e565b8063715018a61461035757806384105ba7146103615780638da5cb5b1461039157806395d89b41146103af578063a22cb465146103cd578063b4ac5f58146103e95761018e565b806326ab90fa1161014b5780634f87e864116101255780634f87e864146102bd5780636352211e146102d95780636817c76c1461030957806370a08231146103275761018e565b806326ab90fa1461027957806342842e0e146102835780634454d7931461029f5761018e565b806301ffc9a71461019357806306fdde03146101c3578063081812fc146101e1578063095ea7b31461021157806317b8e1cf1461022d57806323b872dd1461025d575b600080fd5b6101ad60048036038101906101a891906129b6565b610546565b6040516101ba91906129fe565b60405180910390f35b6101cb610558565b6040516101d89190612aa9565b60405180910390f35b6101fb60048036038101906101f69190612b01565b6105ea565b6040516102089190612b6f565b60405180910390f35b61022b60048036038101906102269190612bb6565b610606565b005b61024760048036038101906102429190612b01565b61061c565b6040516102549190612aa9565b60405180910390f35b61027760048036038101906102729190612bf6565b6106c8565b005b6102816107ca565b005b61029d60048036038101906102989190612bf6565b610918565b005b6102a7610938565b6040516102b49190612b6f565b60405180910390f35b6102d760048036038101906102d29190612c49565b61095e565b005b6102f360048036038101906102ee9190612b01565b610ad7565b6040516103009190612b6f565b60405180910390f35b610311610ae9565b60405161031e9190612c98565b60405180910390f35b610341600480360381019061033c9190612cb3565b610aef565b60405161034e9190612c98565b60405180910390f35b61035f610ba9565b005b61037b60048036038101906103769190612b01565b610bbd565b6040516103889190612aa9565b60405180910390f35b610399610c69565b6040516103a69190612b6f565b60405180910390f35b6103b7610c93565b6040516103c49190612aa9565b60405180910390f35b6103e760048036038101906103e29190612d0c565b610d25565b005b61040360048036038101906103fe9190612cb3565b610d3b565b6040516104109190612e0a565b60405180910390f35b610433600480360381019061042e9190612f61565b610efd565b005b61044f600480360381019061044a9190612b01565b610f22565b60405161045c9190612aa9565b60405180910390f35b61047f600480360381019061047a9190612b01565b610f34565b60405161049196959493929190612fe4565b60405180910390f35b6104b460048036038101906104af919061305a565b611115565b6040516104c191906129fe565b60405180910390f35b6104e460048036038101906104df9190612cb3565b6111a9565b005b61050060048036038101906104fb9190612b01565b61122f565b60405161050d9190612aa9565b60405180910390f35b610530600480360381019061052b9190612b01565b6112db565b60405161053d9190612c98565b60405180910390f35b6000610551826112ff565b9050919050565b606060008054610567906130c9565b80601f0160208091040260200160405190810160405280929190818152602001828054610593906130c9565b80156105e05780601f106105b5576101008083540402835291602001916105e0565b820191906000526020600020905b8154815290600101906020018083116105c357829003601f168201915b5050505050905090565b60006105f582611360565b506105ff826113e8565b9050919050565b6106188282610613611425565b61142d565b5050565b600d818154811061062c57600080fd5b906000526020600020016000915090508054610647906130c9565b80601f0160208091040260200160405190810160405280929190818152602001828054610673906130c9565b80156106c05780601f10610695576101008083540402835291602001916106c0565b820191906000526020600020905b8154815290600101906020018083116106a357829003601f168201915b505050505081565b600073ffffffffffffffffffffffffffffffffffffffff168273ffffffffffffffffffffffffffffffffffffffff160361073a5760006040517f64a0ae920000000000000000000000000000000000000000000000000000000081526004016107319190612b6f565b60405180910390fd5b600061074e8383610749611425565b61143f565b90508373ffffffffffffffffffffffffffffffffffffffff168173ffffffffffffffffffffffffffffffffffffffff16146107c4578382826040517f64283d7b0000000000000000000000000000000000000000000000000000000081526004016107bb939291906130fa565b60405180910390fd5b50505050565b60006008549050600860008154809291906107e490613160565b91905055506107f33382611659565b600042338360405160200161080a93929190613211565b6040516020818303038152906040528051906020012060001c9050600080600061083384611752565b9250925092506040518060c001604052808481526020018381526020018281526020016000151581526020016000815260200142815250600b6000878152602001908152602001600020600082015181600001908161089291906133fa565b5060208201518160010190816108a891906133fa565b5060408201518160020190816108be91906133fa565b5060608201518160030160006101000a81548160ff0219169083151502179055506080820151816004015560a08201518160050155905050600061090486858585611bde565b90506109108682611bfa565b505050505050565b61093383838360405180602001604052806000815250610efd565b505050565b600960009054906101000a900473ffffffffffffffffffffffffffffffffffffffff1681565b3373ffffffffffffffffffffffffffffffffffffffff1661097e83610ad7565b73ffffffffffffffffffffffffffffffffffffffff16146109d4576040517f08c379a00000000000000000000000000000000000000000000000000000000081526004016109cb90613518565b60405180910390fd5b600b600083815260200190815260200160002060030160009054906101000a900460ff1615610a38576040517f08c379a0000000000000000000000000000000000000000000000000000000008152600401610a2f90613584565b60405180910390fd5b60018110158015610a4a575060068111155b610a89576040517f08c379a0000000000000000000000000000000000000000000000000000000008152600401610a80906135f0565b60405180910390fd5b6001600b600084815260200190815260200160002060030160006101000a81548160ff02191690831515021790555080600b6000848152602001908152602001600020600401819055505050565b6000610ae282611360565b9050919050565b600a5481565b60008073ffffffffffffffffffffffffffffffffffffffff168273ffffffffffffffffffffffffffffffffffffffff1603610b625760006040517f89c62b64000000000000000000000000000000000000000000000000000000008152600401610b599190612b6f565b60405180910390fd5b600360008373ffffffffffffffffffffffffffffffffffffffff1673ffffffffffffffffffffffffffffffffffffffff168152602001908152602001600020549050919050565b610bb1611c56565b610bbb6000611cdd565b565b600c8181548110610bcd57600080fd5b906000526020600020016000915090508054610be8906130c9565b80601f0160208091040260200160405190810160405280929190818152602001828054610c14906130c9565b8015610c615780601f10610c3657610100808354040283529160200191610c61565b820191906000526020600020905b815481529060010190602001808311610c4457829003601f168201915b505050505081565b6000600760009054906101000a900473ffffffffffffffffffffffffffffffffffffffff16905090565b606060018054610ca2906130c9565b80601f0160208091040260200160405190810160405280929190818152602001828054610cce906130c9565b8015610d1b5780601f10610cf057610100808354040283529160200191610d1b565b820191906000526020600020905b815481529060010190602001808311610cfe57829003601f168201915b5050505050905090565b610d37610d30611425565b8383611da3565b5050565b60606000610d4883610aef565b67ffffffffffffffff811115610d6157610d60612e36565b5b604051908082528060200260200182016040528015610d8f5781602001602082028036833780820191505090505b5090506000805b600854811015610e4b578473ffffffffffffffffffffffffffffffffffffffff16610dc082610ad7565b73ffffffffffffffffffffffffffffffffffffffff16148015610e045750600b600082815260200190815260200160002060030160009054906101000a900460ff16155b15610e385780838381518110610e1d57610e1c613610565b5b6020026020010181815250508180610e3490613160565b9250505b8080610e4390613160565b915050610d96565b5060008167ffffffffffffffff811115610e6857610e67612e36565b5b604051908082528060200260200182016040528015610e965781602001602082028036833780820191505090505b50905060005b82811015610ef157838181518110610eb757610eb6613610565b5b6020026020010151828281518110610ed257610ed1613610565b5b6020026020010181815250508080610ee990613160565b915050610e9c565b50809350505050919050565b610f088484846106c8565b610f1c610f13611425565b85858585611f12565b50505050565b6060610f2d826120c3565b9050919050565b600b602052806000526040600020600091509050806000018054610f57906130c9565b80601f0160208091040260200160405190810160405280929190818152602001828054610f83906130c9565b8015610fd05780601f10610fa557610100808354040283529160200191610fd0565b820191906000526020600020905b815481529060010190602001808311610fb357829003601f168201915b505050505090806001018054610fe5906130c9565b80601f0160208091040260200160405190810160405280929190818152602001828054611011906130c9565b801561105e5780601f106110335761010080835404028352916020019161105e565b820191906000526020600020905b81548152906001019060200180831161104157829003601f168201915b505050505090806002018054611073906130c9565b80601f016020809104026020016040519081016040528092919081815260200182805461109f906130c9565b80156110ec5780601f106110c1576101008083540402835291602001916110ec565b820191906000526020600020905b8154815290600101906020018083116110cf57829003601f168201915b5050505050908060030160009054906101000a900460ff16908060040154908060050154905086565b6000600560008473ffffffffffffffffffffffffffffffffffffffff1673ffffffffffffffffffffffffffffffffffffffff16815260200190815260200160002060008373ffffffffffffffffffffffffffffffffffffffff1673ffffffffffffffffffffffffffffffffffffffff16815260200190815260200160002060009054906101000a900460ff16905092915050565b6111b1611c56565b600073ffffffffffffffffffffffffffffffffffffffff168173ffffffffffffffffffffffffffffffffffffffff16036112235760006040517f1e4fbdf700000000000000000000000000000000000000000000000000000000815260040161121a9190612b6f565b60405180910390fd5b61122c81611cdd565b50565b600e818154811061123f57600080fd5b90600052602060002001600091509050805461125a906130c9565b80601f0160208091040260200160405190810160405280929190818152602001828054611286906130c9565b80156112d35780601f106112a8576101008083540402835291602001916112d3565b820191906000526020600020905b8154815290600101906020018083116112b657829003601f168201915b505050505081565b600f81815481106112eb57600080fd5b906000526020600020016000915090505481565b6000634906490660e01b7bffffffffffffffffffffffffffffffffffffffffffffffffffffffff1916827bffffffffffffffffffffffffffffffffffffffffffffffffffffffff191614806113595750611358826121d6565b5b9050919050565b60008061136c836122b8565b9050600073ffffffffffffffffffffffffffffffffffffffff168173ffffffffffffffffffffffffffffffffffffffff16036113df57826040517f7e2732890000000000000000000000000000000000000000000000000000000081526004016113d69190612c98565b60405180910390fd5b80915050919050565b60006004600083815260200190815260200160002060009054906101000a900473ffffffffffffffffffffffffffffffffffffffff169050919050565b600033905090565b61143a83838360016122f5565b505050565b60008061144b846122b8565b9050600073ffffffffffffffffffffffffffffffffffffffff168373ffffffffffffffffffffffffffffffffffffffff161461148d5761148c8184866124ba565b5b600073ffffffffffffffffffffffffffffffffffffffff168173ffffffffffffffffffffffffffffffffffffffff161461151e576114cf6000856000806122f5565b6001600360008373ffffffffffffffffffffffffffffffffffffffff1673ffffffffffffffffffffffffffffffffffffffff168152602001908152602001600020600082825403925050819055505b600073ffffffffffffffffffffffffffffffffffffffff168573ffffffffffffffffffffffffffffffffffffffff16146115a1576001600360008773ffffffffffffffffffffffffffffffffffffffff1673ffffffffffffffffffffffffffffffffffffffff168152602001908152602001600020600082825401925050819055505b846002600086815260200190815260200160002060006101000a81548173ffffffffffffffffffffffffffffffffffffffff021916908373ffffffffffffffffffffffffffffffffffffffff160217905550838573ffffffffffffffffffffffffffffffffffffffff168273ffffffffffffffffffffffffffffffffffffffff167fddf252ad1be2c89b69c2b068fc378daa952ba7f163c4a11628f55a4df523b3ef60405160405180910390a4809150509392505050565b600073ffffffffffffffffffffffffffffffffffffffff168273ffffffffffffffffffffffffffffffffffffffff16036116cb5760006040517f64a0ae920000000000000000000000000000000000000000000000000000000081526004016116c29190612b6f565b60405180910390fd5b60006116d98383600061143f565b9050600073ffffffffffffffffffffffffffffffffffffffff168173ffffffffffffffffffffffffffffffffffffffff161461174d5760006040517f73c6ac6e0000000000000000000000000000000000000000000000000000000081526004016117449190612b6f565b60405180910390fd5b505050565b60608060606000606485611766919061366e565b90506000805b600f805490508110156119cc57600f818154811061178d5761178c613610565b5b9060005260206000200154826117a3919061369f565b9150818310156119b957600c81815481106117c1576117c0613610565b5b90600052602060002001600d82815481106117df576117de613610565b5b90600052602060002001600e83815481106117fd576117fc613610565b5b90600052602060002001828054611813906130c9565b80601f016020809104026020016040519081016040528092919081815260200182805461183f906130c9565b801561188c5780601f106118615761010080835404028352916020019161188c565b820191906000526020600020905b81548152906001019060200180831161186f57829003601f168201915b5050505050925081805461189f906130c9565b80601f01602080910402602001604051908101604052809291908181526020018280546118cb906130c9565b80156119185780601f106118ed57610100808354040283529160200191611918565b820191906000526020600020905b8154815290600101906020018083116118fb57829003601f168201915b5050505050915080805461192b906130c9565b80601f0160208091040260200160405190810160405280929190818152602001828054611957906130c9565b80156119a45780601f10611979576101008083540402835291602001916119a4565b820191906000526020600020905b81548152906001019060200180831161198757829003601f168201915b50505050509050955095509550505050611bd7565b80806119c490613160565b91505061176c565b50600c6000815481106119e2576119e1613610565b5b90600052602060002001600d600081548110611a0157611a00613610565b5b90600052602060002001600e600081548110611a2057611a1f613610565b5b90600052602060002001828054611a36906130c9565b80601f0160208091040260200160405190810160405280929190818152602001828054611a62906130c9565b8015611aaf5780601f10611a8457610100808354040283529160200191611aaf565b820191906000526020600020905b815481529060010190602001808311611a9257829003601f168201915b50505050509250818054611ac2906130c9565b80601f0160208091040260200160405190810160405280929190818152602001828054611aee906130c9565b8015611b3b5780601f10611b1057610100808354040283529160200191611b3b565b820191906000526020600020905b815481529060010190602001808311611b1e57829003601f168201915b50505050509150808054611b4e906130c9565b80601f0160208091040260200160405190810160405280929190818152602001828054611b7a906130c9565b8015611bc75780601f10611b9c57610100808354040283529160200191611bc7565b820191906000526020600020905b815481529060010190602001808311611baa57829003601f168201915b5050505050905094509450945050505b9193909250565b6060604051806020016040528060008152509050949350505050565b80600660008481526020019081526020016000209081611c1a91906133fa565b507ff8e1a15aba9398e019f0b49df1a4fde98ee17ae345cb5f6b5e2c27f5033e8ce782604051611c4a9190612c98565b60405180910390a15050565b611c5e611425565b73ffffffffffffffffffffffffffffffffffffffff16611c7c610c69565b73ffffffffffffffffffffffffffffffffffffffff1614611cdb57611c9f611425565b6040517f118cdaa7000000000000000000000000000000000000000000000000000000008152600401611cd29190612b6f565b60405180910390fd5b565b6000600760009054906101000a900473ffffffffffffffffffffffffffffffffffffffff16905081600760006101000a81548173ffffffffffffffffffffffffffffffffffffffff021916908373ffffffffffffffffffffffffffffffffffffffff1602179055508173ffffffffffffffffffffffffffffffffffffffff168173ffffffffffffffffffffffffffffffffffffffff167f8be0079c531659141344cd1fd0a4f28419497f9722a3daafe3b4186f6b6457e060405160405180910390a35050565b600073ffffffffffffffffffffffffffffffffffffffff168273ffffffffffffffffffffffffffffffffffffffff1603611e1457816040517f5b08ba18000000000000000000000000000000000000000000000000000000008152600401611e0b9190612b6f565b60405180910390fd5b80600560008573ffffffffffffffffffffffffffffffffffffffff1673ffffffffffffffffffffffffffffffffffffffff16815260200190815260200160002060008473ffffffffffffffffffffffffffffffffffffffff1673ffffffffffffffffffffffffffffffffffffffff16815260200190815260200160002060006101000a81548160ff0219169083151502179055508173ffffffffffffffffffffffffffffffffffffffff168373ffffffffffffffffffffffffffffffffffffffff167f17307eab39ab6107e8899845ad3d59bd9653f200f220920489ca2b5937696c3183604051611f0591906129fe565b60405180910390a3505050565b60008373ffffffffffffffffffffffffffffffffffffffff163b11156120bc578273ffffffffffffffffffffffffffffffffffffffff1663150b7a02868685856040518563ffffffff1660e01b8152600401611f719493929190613728565b6020604051808303816000875af1925050508015611fad57506040513d601f19601f82011682018060405250810190611faa9190613789565b60015b612031573d8060008114611fdd576040519150601f19603f3d011682016040523d82523d6000602084013e611fe2565b606091505b50600081510361202957836040517f64a0ae920000000000000000000000000000000000000000000000000000000081526004016120209190612b6f565b60405180910390fd5b805160208201fd5b63150b7a0260e01b7bffffffffffffffffffffffffffffffffffffffffffffffffffffffff1916817bffffffffffffffffffffffffffffffffffffffffffffffffffffffff1916146120ba57836040517f64a0ae920000000000000000000000000000000000000000000000000000000081526004016120b19190612b6f565b60405180910390fd5b505b5050505050565b60606120ce82611360565b5060006006600084815260200190815260200160002080546120ef906130c9565b80601f016020809104026020016040519081016040528092919081815260200182805461211b906130c9565b80156121685780601f1061213d57610100808354040283529160200191612168565b820191906000526020600020905b81548152906001019060200180831161214b57829003601f168201915b50505050509050600061217961257e565b9050600081510361218e5781925050506121d1565b6000825111156121c35780826040516020016121ab9291906137f2565b604051602081830303815290604052925050506121d1565b6121cc84612595565b925050505b919050565b60007f80ac58cd000000000000000000000000000000000000000000000000000000007bffffffffffffffffffffffffffffffffffffffffffffffffffffffff1916827bffffffffffffffffffffffffffffffffffffffffffffffffffffffff191614806122a157507f5b5e139f000000000000000000000000000000000000000000000000000000007bffffffffffffffffffffffffffffffffffffffffffffffffffffffff1916827bffffffffffffffffffffffffffffffffffffffffffffffffffffffff1916145b806122b157506122b0826125fe565b5b9050919050565b60006002600083815260200190815260200160002060009054906101000a900473ffffffffffffffffffffffffffffffffffffffff169050919050565b808061232e5750600073ffffffffffffffffffffffffffffffffffffffff168273ffffffffffffffffffffffffffffffffffffffff1614155b1561246257600061233e84611360565b9050600073ffffffffffffffffffffffffffffffffffffffff168373ffffffffffffffffffffffffffffffffffffffff16141580156123a957508273ffffffffffffffffffffffffffffffffffffffff168173ffffffffffffffffffffffffffffffffffffffff1614155b80156123bc57506123ba8184611115565b155b156123fe57826040517fa9fbf51f0000000000000000000000000000000000000000000000000000000081526004016123f59190612b6f565b60405180910390fd5b811561246057838573ffffffffffffffffffffffffffffffffffffffff168273ffffffffffffffffffffffffffffffffffffffff167f8c5be1e5ebec7d5bd14f71427d1e84f3dd0314c0f7b2291e5b200ac8c7c3b92560405160405180910390a45b505b836004600085815260200190815260200160002060006101000a81548173ffffffffffffffffffffffffffffffffffffffff021916908373ffffffffffffffffffffffffffffffffffffffff16021790555050505050565b6124c5838383612668565b61257957600073ffffffffffffffffffffffffffffffffffffffff168373ffffffffffffffffffffffffffffffffffffffff160361253a57806040517f7e2732890000000000000000000000000000000000000000000000000000000081526004016125319190612c98565b60405180910390fd5b81816040517f177e802f000000000000000000000000000000000000000000000000000000008152600401612570929190613816565b60405180910390fd5b505050565b606060405180602001604052806000815250905090565b60606125a082611360565b5060006125ab61257e565b905060008151116125cb57604051806020016040528060008152506125f6565b806125d584612729565b6040516020016125e69291906137f2565b6040516020818303038152906040525b915050919050565b60007f01ffc9a7000000000000000000000000000000000000000000000000000000007bffffffffffffffffffffffffffffffffffffffffffffffffffffffff1916827bffffffffffffffffffffffffffffffffffffffffffffffffffffffff1916149050919050565b60008073ffffffffffffffffffffffffffffffffffffffff168373ffffffffffffffffffffffffffffffffffffffff161415801561272057508273ffffffffffffffffffffffffffffffffffffffff168473ffffffffffffffffffffffffffffffffffffffff1614806126e157506126e08484611115565b5b8061271f57508273ffffffffffffffffffffffffffffffffffffffff16612707836113e8565b73ffffffffffffffffffffffffffffffffffffffff16145b5b90509392505050565b606060006001612738846127f7565b01905060008167ffffffffffffffff81111561275757612756612e36565b5b6040519080825280601f01601f1916602001820160405280156127895781602001600182028036833780820191505090505b509050600082602083010190505b6001156127ec578080600190039150507f3031323334353637383961626364656600000000000000000000000000000000600a86061a8153600a85816127e0576127df61363f565b5b04945060008503612797575b819350505050919050565b600080600090507a184f03e93ff9f4daa797ed6e38ed64bf6a1f0100000000000000008310612855577a184f03e93ff9f4daa797ed6e38ed64bf6a1f010000000000000000838161284b5761284a61363f565b5b0492506040810190505b6d04ee2d6d415b85acef81000000008310612892576d04ee2d6d415b85acef810000000083816128885761288761363f565b5b0492506020810190505b662386f26fc1000083106128c157662386f26fc1000083816128b7576128b661363f565b5b0492506010810190505b6305f5e10083106128ea576305f5e10083816128e0576128df61363f565b5b0492506008810190505b612710831061290f5761271083816129055761290461363f565b5b0492506004810190505b6064831061293257606483816129285761292761363f565b5b0492506002810190505b600a8310612941576001810190505b80915050919050565b6000604051905090565b600080fd5b600080fd5b60007fffffffff0000000000000000000000000000000000000000000000000000000082169050919050565b6129938161295e565b811461299e57600080fd5b50565b6000813590506129b08161298a565b92915050565b6000602082840312156129cc576129cb612954565b5b60006129da848285016129a1565b91505092915050565b60008115159050919050565b6129f8816129e3565b82525050565b6000602082019050612a1360008301846129ef565b92915050565b600081519050919050565b600082825260208201905092915050565b60005b83811015612a53578082015181840152602081019050612a38565b60008484015250505050565b6000601f19601f8301169050919050565b6000612a7b82612a19565b612a858185612a24565b9350612a95818560208601612a35565b612a9e81612a5f565b840191505092915050565b60006020820190508181036000830152612ac38184612a70565b905092915050565b6000819050919050565b612ade81612acb565b8114612ae957600080fd5b50565b600081359050612afb81612ad5565b92915050565b600060208284031215612b1757612b16612954565b5b6000612b2584828501612aec565b91505092915050565b600073ffffffffffffffffffffffffffffffffffffffff82169050919050565b6000612b5982612b2e565b9050919050565b612b6981612b4e565b82525050565b6000602082019050612b846000830184612b60565b92915050565b612b9381612b4e565b8114612b9e57600080fd5b50565b600081359050612bb081612b8a565b92915050565b60008060408385031215612bcd57612bcc612954565b5b6000612bdb85828601612ba1565b9250506020612bec85828601612aec565b9150509250929050565b600080600060608486031215612c0f57612c0e612954565b5b6000612c1d86828701612ba1565b9350506020612c2e86828701612ba1565b9250506040612c3f86828701612aec565b9150509250925092565b60008060408385031215612c6057612c5f612954565b5b6000612c6e85828601612aec565b9250506020612c7f85828601612aec565b9150509250929050565b612c9281612acb565b82525050565b6000602082019050612cad6000830184612c89565b92915050565b600060208284031215612cc957612cc8612954565b5b6000612cd784828501612ba1565b91505092915050565b612ce9816129e3565b8114612cf457600080fd5b50565b600081359050612d0681612ce0565b92915050565b60008060408385031215612d2357612d22612954565b5b6000612d3185828601612ba1565b9250506020612d4285828601612cf7565b9150509250929050565b600081519050919050565b600082825260208201905092915050565b6000819050602082019050919050565b612d8181612acb565b82525050565b6000612d938383612d78565b60208301905092915050565b6000602082019050919050565b6000612db782612d4c565b612dc18185612d57565b9350612dcc83612d68565b8060005b83811015612dfd578151612de48882612d87565b9750612def83612d9f565b925050600181019050612dd0565b5085935050505092915050565b60006020820190508181036000830152612e248184612dac565b905092915050565b600080fd5b600080fd5b7f4e487b7100000000000000000000000000000000000000000000000000000000600052604160045260246000fd5b612e6e82612a5f565b810181811067ffffffffffffffff82111715612e8d57612e8c612e36565b5b80604052505050565b6000612ea061294a565b9050612eac8282612e65565b919050565b600067ffffffffffffffff821115612ecc57612ecb612e36565b5b612ed582612a5f565b9050602081019050919050565b82818337600083830152505050565b6000612f04612eff84612eb1565b612e96565b905082815260208101848484011115612f2057612f1f612e31565b5b612f2b848285612ee2565b509392505050565b600082601f830112612f4857612f47612e2c565b5b8135612f58848260208601612ef1565b91505092915050565b60008060008060808587031215612f7b57612f7a612954565b5b6000612f8987828801612ba1565b9450506020612f9a87828801612ba1565b9350506040612fab87828801612aec565b925050606085013567ffffffffffffffff811115612fcc57612fcb612959565b5b612fd887828801612f33565b91505092959194509250565b600060c0820190508181036000830152612ffe8189612a70565b905081810360208301526130128188612a70565b905081810360408301526130268187612a70565b905061303560608301866129ef565b6130426080830185612c89565b61304f60a0830184612c89565b979650505050505050565b6000806040838503121561307157613070612954565b5b600061307f85828601612ba1565b925050602061309085828601612ba1565b9150509250929050565b7f4e487b7100000000000000000000000000000000000000000000000000000000600052602260045260246000fd5b600060028204905060018216806130e157607f821691505b6020821081036130f4576130f361309a565b5b50919050565b600060608201905061310f6000830186612b60565b61311c6020830185612c89565b6131296040830184612b60565b949350505050565b7f4e487b7100000000000000000000000000000000000000000000000000000000600052601160045260246000fd5b600061316b82612acb565b91507fffffffffffffffffffffffffffffffffffffffffffffffffffffffffffffffff820361319d5761319c613131565b5b600182019050919050565b6000819050919050565b6131c36131be82612acb565b6131a8565b82525050565b60008160601b9050919050565b60006131e1826131c9565b9050919050565b60006131f3826131d6565b9050919050565b61320b61320682612b4e565b6131e8565b82525050565b600061321d82866131b2565b60208201915061322d82856131fa565b60148201915061323d82846131b2565b602082019150819050949350505050565b60008190508160005260206000209050919050565b60006020601f8301049050919050565b600082821b905092915050565b6000600883026132b07fffffffffffffffffffffffffffffffffffffffffffffffffffffffffffffffff82613273565b6132ba8683613273565b95508019841693508086168417925050509392505050565b6000819050919050565b60006132f76132f26132ed84612acb565b6132d2565b612acb565b9050919050565b6000819050919050565b613311836132dc565b61332561331d826132fe565b848454613280565b825550505050565b600090565b61333a61332d565b613345818484613308565b505050565b5b818110156133695761335e600082613332565b60018101905061334b565b5050565b601f8211156133ae5761337f8161324e565b61338884613263565b81016020851015613397578190505b6133ab6133a385613263565b83018261334a565b50505b505050565b600082821c905092915050565b60006133d1600019846008026133b3565b1980831691505092915050565b60006133ea83836133c0565b9150826002028217905092915050565b61340382612a19565b67ffffffffffffffff81111561341c5761341b612e36565b5b61342682546130c9565b61343182828561336d565b600060209050601f8311600181146134645760008415613452578287015190505b61345c85826133de565b8655506134c4565b601f1984166134728661324e565b60005b8281101561349a57848901518255600182019150602085019450602081019050613475565b868310156134b757848901516134b3601f8916826133c0565b8355505b6001600288020188555050505b505050505050565b7f4e6f74206f776e6572206f662073656564000000000000000000000000000000600082015250565b6000613502601183612a24565b915061350d826134cc565b602082019050919050565b60006020820190508181036000830152613531816134f5565b9050919050565b7f5365656420616c726561647920706c616e746564000000000000000000000000600082015250565b600061356e601483612a24565b915061357982613538565b602082019050919050565b6000602082019050818103600083015261359d81613561565b9050919050565b7f496e76616c696420706c6f742049440000000000000000000000000000000000600082015250565b60006135da600f83612a24565b91506135e5826135a4565b602082019050919050565b60006020820190508181036000830152613609816135cd565b9050919050565b7f4e487b7100000000000000000000000000000000000000000000000000000000600052603260045260246000fd5b7f4e487b7100000000000000000000000000000000000000000000000000000000600052601260045260246000fd5b600061367982612acb565b915061368483612acb565b9250826136945761369361363f565b5b828206905092915050565b60006136aa82612acb565b91506136b583612acb565b92508282019050808211156136cd576136cc613131565b5b92915050565b600081519050919050565b600082825260208201905092915050565b60006136fa826136d3565b61370481856136de565b9350613714818560208601612a35565b61371d81612a5f565b840191505092915050565b600060808201905061373d6000830187612b60565b61374a6020830186612b60565b6137576040830185612c89565b818103606083015261376981846136ef565b905095945050505050565b6000815190506137838161298a565b92915050565b60006020828403121561379f5761379e612954565b5b60006137ad84828501613774565b91505092915050565b600081905092915050565b60006137cc82612a19565b6137d681856137b6565b93506137e6818560208601612a35565b80840191505092915050565b60006137fe82856137c1565b915061380a82846137c1565b91508190509392505050565b600060408201905061382b6000830185612b60565b6138386020830184612c89565b939250505056fea264697066735822122004f2287af70f8e988a02d3bc6cb6278a71989cfe8a8e7935ebfd9e503f95f38464736f6c63430008140033",
  "linkReferences": {},
  "deployedLinkReferences": {}
}