{
  "_format": "hh-sol-artifact-1",
  "contractName": "DIRTToken",
  "sourceName": "contracts/DIRTToken.sol",
  "abi": [
    {
      "inputs": [],
      "stateMutability": "nonpayable",
      "type": "constructor"
    },
    {
      "inputs": [
        {
          "internalType": "address",
          "name": "spender",
          "type": "address"
        },
        {
          "internalType": "uint256",
          "name": "allowance",
          "type": "uint256"
        },
        {
          "internalType": "uint256",
          "name": "needed",
          "type": "uint256"
        }
      ],
      "name": "ERC20InsufficientAllowance",
      "type": "error"
    },
    {
      "inputs": [
        {
          "internalType": "address",
          "name": "sender",
          "type": "address"
        },
        {
          "internalType": "uint256",
          "name": "balance",
          "type": "uint256"
        },
        {
          "internalType": "uint256",
          "name": "needed",
          "type": "uint256"
        }
      ],
      "name": "ERC20InsufficientBalance",
      "type": "error"
    },
    {
      "inputs": [
        {
          "internalType": "address",
          "name": "approver",
          "type": "address"
        }
      ],
      "name": "ERC20InvalidApprover",
      "type": "error"
    },
    {
      "inputs": [
        {
          "internalType": "address",
          "name": "receiver",
          "type": "address"
        }
      ],
      "name": "ERC20InvalidReceiver",
      "type": "error"
    },
    {
      "inputs": [
        {
          "internalType": "address",
          "name": "sender",
          "type": "address"
        }
      ],
      "name": "ERC20InvalidSender",
      "type": "error"
    },
    {
      "inputs": [
        {
          "internalType": "address",
          "name": "spender",
          "type": "address"
        }
      ],
      "name": "ERC20InvalidSpender",
      "type": "error"
    },
    {
      "inputs": [
        {
          "internalType": "address",
          "name": "owner",
          "type": "address"
        }
      ],
      "name": "OwnableInvalidOwner",
      "type": "error"
    },
    {
      "inputs": [
        {
          "internalType": "address",
          "name": "account",
          "type": "address"
        }
      ],
      "name": "OwnableUnauthorizedAccount",
      "type": "error"
    },
    {
      "anonymous": false,
      "inputs": [
        {
          "indexed": true,
          "internalType": "address",
          "name": "owner",
          "type": "address"
        },
        {
          "indexed": true,
          "internalType": "address",
          "name": "spender",
          "type": "address"
        },
        {
          "indexed": false,
          "internalType": "uint256",
          "name": "value",
          "type": "uint256"
        }
      ],
      "name": "Approval",
      "type": "event"
    },
    {
      "anonymous": false,
      "inputs": [
        {
          "indexed": true,
          "internalType": "address",
          "name": "previousOwner",
          "type": "address"
        },
        {
          "indexed": true,
          "internalType": "address",
          "name": "newOwner",
          "type": "address"
        }
      ],
      "name": "OwnershipTransferred",
      "type": "event"
    },
    {
      "anonymous": false,
      "inputs": [
        {
          "indexed": true,
          "internalType": "address",
          "name": "from",
          "type": "address"
        },
        {
          "indexed": true,
          "internalType": "address",
          "name": "to",
          "type": "address"
        },
        {
          "indexed": false,
          "internalType": "uint256",
          "name": "value",
          "type": "uint256"
        }
      ],
      "name": "Transfer",
      "type": "event"
    },
    {
      "inputs": [],
      "name": "BURR_RATE",
      "outputs": [
        {
          "internalType": "uint256",
          "name": "",
          "type": "uint256"
        }
      ],
      "stateMutability": "view",
      "type": "function"
    },
    {
      "inputs": [],
      "name": "GUGO_RATE",
      "outputs": [
        {
          "internalType": "uint256",
          "name": "",
          "type": "uint256"
        }
      ],
      "stateMutability": "view",
      "type": "function"
    },
    {
      "inputs": [
        {
          "internalType": "address",
          "name": "owner",
          "type": "address"
        },
        {
          "internalType": "address",
          "name": "spender",
          "type": "address"
        }
      ],
      "name": "allowance",
      "outputs": [
        {
          "internalType": "uint256",
          "name": "",
          "type": "uint256"
        }
      ],
      "stateMutability": "view",
      "type": "function"
    },
    {
      "inputs": [
        {
          "internalType": "address",
          "name": "spender",
          "type": "address"
        },
        {
          "internalType": "uint256",
          "name": "value",
          "type": "uint256"
        }
      ],
      "name": "approve",
      "outputs": [
        {
          "internalType": "bool",
          "name": "",
          "type": "bool"
        }
      ],
      "stateMutability": "nonpayable",
      "type": "function"
    },
    {
      "inputs": [
        {
          "internalType": "address",
          "name": "account",
          "type": "address"
        }
      ],
      "name": "balanceOf",
      "outputs": [
        {
          "internalType": "uint256",
          "name": "",
          "type": "uint256"
        }
      ],
      "stateMutability": "view",
      "type": "function"
    },
    {
      "inputs": [],
      "name": "burrToken",
      "outputs": [
        {
          "internalType": "address",
          "name": "",
          "type": "address"
        }
      ],
      "stateMutability": "view",
      "type": "function"
    },
    {
      "inputs": [],
      "name": "buyDIRTWithETH",
      "outputs": [],
      "stateMutability": "payable",
      "type": "function"
    },
    {
      "inputs": [],
      "name": "claimDIRT",
      "outputs": [],
      "stateMutability": "nonpayable",
      "type": "function"
    },
    {
      "inputs": [],
      "name": "decimals",
      "outputs": [
        {
          "internalType": "uint8",
          "name": "",
          "type": "uint8"
        }
      ],
      "stateMutability": "view",
      "type": "function"
    },
    {
      "inputs": [],
      "name": "gugoToken",
      "outputs": [
        {
          "internalType": "address",
          "name": "",
          "type": "address"
        }
      ],
      "stateMutability": "view",
      "type": "function"
    },
    {
      "inputs": [
        {
          "internalType": "address",
          "name": "",
          "type": "address"
        }
      ],
      "name": "lastClaimTime",
      "outputs": [
        {
          "internalType": "uint256",
          "name": "",
          "type": "uint256"
        }
      ],
      "stateMutability": "view",
      "type": "function"
    },
    {
      "inputs": [
        {
          "internalType": "address",
          "name": "to",
          "type": "address"
        },
        {
          "internalType": "uint256",
          "name": "amount",
          "type": "uint256"
        }
      ],
      "name": "mint",
      "outputs": [],
      "stateMutability": "nonpayable",
      "type": "function"
    },
    {
      "inputs": [],
      "name": "name",
      "outputs": [
        {
          "internalType": "string",
          "name": "",
          "type": "string"
        }
      ],
      "stateMutability": "view",
      "type": "function"
    },
    {
      "inputs": [],
      "name": "owner",
      "outputs": [
        {
          "internalType": "address",
          "name": "",
          "type": "address"
        }
      ],
      "stateMutability": "view",
      "type": "function"
    },
    {
      "inputs": [],
      "name": "renounceOwnership",
      "outputs": [],
      "stateMutability": "nonpayable",
      "type": "function"
    },
    {
      "inputs": [
        {
          "internalType": "address",
          "name": "_gugoToken",
          "type": "address"
        },
        {
          "internalType": "address",
          "name": "_burrToken",
          "type": "address"
        }
      ],
      "name": "setTokenAddresses",
      "outputs": [],
      "stateMutability": "nonpayable",
      "type": "function"
    },
    {
      "inputs": [
        {
          "internalType": "uint256",
          "name": "amount",
          "type": "uint256"
        }
      ],
      "name": "stakeBURR",
      "outputs": [],
      "stateMutability": "nonpayable",
      "type": "function"
    },
    {
      "inputs": [
        {
          "internalType": "uint256",
          "name": "amount",
          "type": "uint256"
        }
      ],
      "name": "stakeGUGO",
      "outputs": [],
      "stateMutability": "nonpayable",
      "type": "function"
    },
    {
      "inputs": [
        {
          "internalType": "address",
          "name": "",
          "type": "address"
        }
      ],
      "name": "stakedBURR",
      "outputs": [
        {
          "internalType": "uint256",
          "name": "",
          "type": "uint256"
        }
      ],
      "stateMutability": "view",
      "type": "function"
    },
    {
      "inputs": [
        {
          "internalType": "address",
          "name": "",
          "type": "address"
        }
      ],
      "name": "stakedGUGO",
      "outputs": [
        {
          "internalType": "uint256",
          "name": "",
          "type": "uint256"
        }
      ],
      "stateMutability": "view",
      "type": "function"
    },
    {
      "inputs": [],
      "name": "symbol",
      "outputs": [
        {
          "internalType": "string",
          "name": "",
          "type": "string"
        }
      ],
      "stateMutability": "view",
      "type": "function"
    },
    {
      "inputs": [],
      "name": "totalSupply",
      "outputs": [
        {
          "internalType": "uint256",
          "name": "",
          "type": "uint256"
        }
      ],
      "stateMutability": "view",
      "type": "function"
    },
    {
      "inputs": [
        {
          "internalType": "address",
          "name": "to",
          "type": "address"
        },
        {
          "internalType": "uint256",
          "name": "value",
          "type": "uint256"
        }
      ],
      "name": "transfer",
      "outputs": [
        {
          "internalType": "bool",
          "name": "",
          "type": "bool"
        }
      ],
      "stateMutability": "nonpayable",
      "type": "function"
    },
    {
      "inputs": [
        {
          "internalType": "address",
          "name": "from",
          "type": "address"
        },
        {
          "internalType": "address",
          "name": "to",
          "type": "address"
        },
        {
          "internalType": "uint256",
          "name": "value",
          "type": "uint256"
        }
      ],
      "name": "transferFrom",
      "outputs": [
        {
          "internalType": "bool",
          "name": "",
          "type": "bool"
        }
      ],
      "stateMutability": "nonpayable",
      "type": "function"
    },
    {
      "inputs": [
        {
          "internalType": "address",
          "name": "newOwner",
          "type": "address"
        }
      ],
      "name": "transferOwnership",
      "outputs": [],
      "stateMutability": "nonpayable",
      "type": "function"
    }
  ],
  "bytecode": "0x60806040523480156200001157600080fd5b50336040518060400160405280600481526020017f44495254000000000000000000000000000000000000000000000000000000008152506040518060400160405280600481526020017f4449525400000000000000000000000000000000000000000000000000000000815250816003908162000090919062000472565b508060049081620000a2919062000472565b505050600073ffffffffffffffffffffffffffffffffffffffff168173ffffffffffffffffffffffffffffffffffffffff16036200011a5760006040517f1e4fbdf70000000000000000000000000000000000000000000000000000000081526004016200011191906200059e565b60405180910390fd5b6200012b816200013260201b60201c565b50620005bb565b6000600560009054906101000a900473ffffffffffffffffffffffffffffffffffffffff16905081600560006101000a81548173ffffffffffffffffffffffffffffffffffffffff021916908373ffffffffffffffffffffffffffffffffffffffff1602179055508173ffffffffffffffffffffffffffffffffffffffff168173ffffffffffffffffffffffffffffffffffffffff167f8be0079c531659141344cd1fd0a4f28419497f9722a3daafe3b4186f6b6457e060405160405180910390a35050565b600081519050919050565b7f4e487b7100000000000000000000000000000000000000000000000000000000600052604160045260246000fd5b7f4e487b7100000000000000000000000000000000000000000000000000000000600052602260045260246000fd5b600060028204905060018216806200027a57607f821691505b60208210810362000290576200028f62000232565b5b50919050565b60008190508160005260206000209050919050565b60006020601f8301049050919050565b600082821b905092915050565b600060088302620002fa7fffffffffffffffffffffffffffffffffffffffffffffffffffffffffffffffff82620002bb565b620003068683620002bb565b95508019841693508086168417925050509392505050565b6000819050919050565b6000819050919050565b6000620003536200034d62000347846200031e565b62000328565b6200031e565b9050919050565b6000819050919050565b6200036f8362000332565b620003876200037e826200035a565b848454620002c8565b825550505050565b600090565b6200039e6200038f565b620003ab81848462000364565b505050565b5b81811015620003d357620003c760008262000394565b600181019050620003b1565b5050565b601f8211156200042257620003ec8162000296565b620003f784620002ab565b8101602085101562000407578190505b6200041f6200041685620002ab565b830182620003b0565b50505b505050565b600082821c905092915050565b6000620004476000198460080262000427565b1980831691505092915050565b600062000462838362000434565b9150826002028217905092915050565b6200047d82620001f8565b67ffffffffffffffff81111562000499576200049862000203565b5b620004a5825462000261565b620004b2828285620003d7565b600060209050601f831160018114620004ea5760008415620004d5578287015190505b620004e1858262000454565b86555062000551565b601f198416620004fa8662000296565b60005b828110156200052457848901518255600182019150602085019450602081019050620004fd565b8683101562000544578489015162000540601f89168262000434565b8355505b6001600288020188555050505b505050505050565b600073ffffffffffffffffffffffffffffffffffffffff82169050919050565b6000620005868262000559565b9050919050565b620005988162000579565b82525050565b6000602082019050620005b560008301846200058d565b92915050565b611efa80620005cb6000396000f3fe6080604052600436106101665760003560e01c806340c10f19116100d157806395d89b411161008a578063b77cf9c611610064578063b77cf9c61461050d578063dd62ed3e1461054a578063edaf1e8f14610587578063f2fde38b146105b257610166565b806395d89b411461047c578063a89c8c5e146104a7578063a9059cbb146104d057610166565b806340c10f19146103805780634781989d146103a95780635cc4a7db146103d457806370a08231146103fd578063715018a61461043a5780638da5cb5b1461045157610166565b806323b872dd1161012357806323b872dd1461028f57806326efcb56146102cc5780632c8d4c64146102e3578063313ce567146102ed57806334b2429d1461031857806335f227901461035557610166565b806306fdde031461016b578063088c0c2414610196578063095ea7b3146101d35780631419451d1461021057806318160ddd146102395780631ec497e114610264575b600080fd5b34801561017757600080fd5b506101806105db565b60405161018d91906117c3565b60405180910390f35b3480156101a257600080fd5b506101bd60048036038101906101b89190611848565b61066d565b6040516101ca919061188e565b60405180910390f35b3480156101df57600080fd5b506101fa60048036038101906101f591906118d5565b610685565b6040516102079190611930565b60405180910390f35b34801561021c57600080fd5b506102376004803603810190610232919061194b565b6106a8565b005b34801561024557600080fd5b5061024e610819565b60405161025b919061188e565b60405180910390f35b34801561027057600080fd5b50610279610823565b604051610286919061188e565b60405180910390f35b34801561029b57600080fd5b506102b660048036038101906102b19190611978565b610828565b6040516102c39190611930565b60405180910390f35b3480156102d857600080fd5b506102e1610857565b005b6102eb610a64565b005b3480156102f957600080fd5b50610302610ade565b60405161030f91906119e7565b60405180910390f35b34801561032457600080fd5b5061033f600480360381019061033a9190611848565b610ae7565b60405161034c919061188e565b60405180910390f35b34801561036157600080fd5b5061036a610aff565b6040516103779190611a11565b60405180910390f35b34801561038c57600080fd5b506103a760048036038101906103a291906118d5565b610b25565b005b3480156103b557600080fd5b506103be610b3b565b6040516103cb9190611a11565b60405180910390f35b3480156103e057600080fd5b506103fb60048036038101906103f6919061194b565b610b61565b005b34801561040957600080fd5b50610424600480360381019061041f9190611848565b610cd2565b604051610431919061188e565b60405180910390f35b34801561044657600080fd5b5061044f610d1a565b005b34801561045d57600080fd5b50610466610d2e565b6040516104739190611a11565b60405180910390f35b34801561048857600080fd5b50610491610d58565b60405161049e91906117c3565b60405180910390f35b3480156104b357600080fd5b506104ce60048036038101906104c99190611a2c565b610dea565b005b3480156104dc57600080fd5b506104f760048036038101906104f291906118d5565b610e78565b6040516105049190611930565b60405180910390f35b34801561051957600080fd5b50610534600480360381019061052f9190611848565b610e9b565b604051610541919061188e565b60405180910390f35b34801561055657600080fd5b50610571600480360381019061056c9190611a2c565b610eb3565b60405161057e919061188e565b60405180910390f35b34801561059357600080fd5b5061059c610f3a565b6040516105a9919061188e565b60405180910390f35b3480156105be57600080fd5b506105d960048036038101906105d49190611848565b610f3f565b005b6060600380546105ea90611a9b565b80601f016020809104026020016040519081016040528092919081815260200182805461061690611a9b565b80156106635780601f1061063857610100808354040283529160200191610663565b820191906000526020600020905b81548152906001019060200180831161064657829003601f168201915b5050505050905090565b60066020528060005260406000206000915090505481565b600080610690610fc5565b905061069d818585610fcd565b600191505092915050565b600073ffffffffffffffffffffffffffffffffffffffff16600a60009054906101000a900473ffffffffffffffffffffffffffffffffffffffff1673ffffffffffffffffffffffffffffffffffffffff1603610739576040517f08c379a000000000000000000000000000000000000000000000000000000000815260040161073090611b18565b60405180910390fd5b6000811161077c576040517f08c379a000000000000000000000000000000000000000000000000000000000815260040161077390611b84565b60405180910390fd5b80600760003373ffffffffffffffffffffffffffffffffffffffff1673ffffffffffffffffffffffffffffffffffffffff16815260200190815260200160002060008282546107cb9190611bd3565b9250508190555042600860003373ffffffffffffffffffffffffffffffffffffffff1673ffffffffffffffffffffffffffffffffffffffff1681526020019081526020016000208190555050565b6000600254905090565b603281565b600080610833610fc5565b9050610840858285610fdf565b61084b858585611074565b60019150509392505050565b6000600860003373ffffffffffffffffffffffffffffffffffffffff1673ffffffffffffffffffffffffffffffffffffffff16815260200190815260200160002054426108a49190611c07565b9050600081116108e9576040517f08c379a00000000000000000000000000000000000000000000000000000000081526004016108e090611c87565b60405180910390fd5b600063269fb20082604b600660003373ffffffffffffffffffffffffffffffffffffffff1673ffffffffffffffffffffffffffffffffffffffff1681526020019081526020016000205461093d9190611ca7565b6109479190611ca7565b6109519190611d18565b905060006319bfcc00836032600760003373ffffffffffffffffffffffffffffffffffffffff1673ffffffffffffffffffffffffffffffffffffffff168152602001908152602001600020546109a79190611ca7565b6109b19190611ca7565b6109bb9190611d18565b9050600081836109cb9190611bd3565b905060008111610a10576040517f08c379a0000000000000000000000000000000000000000000000000000000008152600401610a0790611d95565b60405180910390fd5b610a1a3382611168565b42600860003373ffffffffffffffffffffffffffffffffffffffff1673ffffffffffffffffffffffffffffffffffffffff1681526020019081526020016000208190555050505050565b662386f26fc10000341015610aae576040517f08c379a0000000000000000000000000000000000000000000000000000000008152600401610aa590611e01565b60405180910390fd5b6000662386f26fc10000603234610ac59190611ca7565b610acf9190611d18565b9050610adb3382611168565b50565b60006012905090565b60076020528060005260406000206000915090505481565b600960009054906101000a900473ffffffffffffffffffffffffffffffffffffffff1681565b610b2d6111ea565b610b378282611168565b5050565b600a60009054906101000a900473ffffffffffffffffffffffffffffffffffffffff1681565b600073ffffffffffffffffffffffffffffffffffffffff16600960009054906101000a900473ffffffffffffffffffffffffffffffffffffffff1673ffffffffffffffffffffffffffffffffffffffff1603610bf2576040517f08c379a0000000000000000000000000000000000000000000000000000000008152600401610be990611e6d565b60405180910390fd5b60008111610c35576040517f08c379a0000000000000000000000000000000000000000000000000000000008152600401610c2c90611b84565b60405180910390fd5b80600660003373ffffffffffffffffffffffffffffffffffffffff1673ffffffffffffffffffffffffffffffffffffffff1681526020019081526020016000206000828254610c849190611bd3565b9250508190555042600860003373ffffffffffffffffffffffffffffffffffffffff1673ffffffffffffffffffffffffffffffffffffffff1681526020019081526020016000208190555050565b60008060008373ffffffffffffffffffffffffffffffffffffffff1673ffffffffffffffffffffffffffffffffffffffff168152602001908152602001600020549050919050565b610d226111ea565b610d2c6000611271565b565b6000600560009054906101000a900473ffffffffffffffffffffffffffffffffffffffff16905090565b606060048054610d6790611a9b565b80601f0160208091040260200160405190810160405280929190818152602001828054610d9390611a9b565b8015610de05780601f10610db557610100808354040283529160200191610de0565b820191906000526020600020905b815481529060010190602001808311610dc357829003601f168201915b5050505050905090565b610df26111ea565b81600960006101000a81548173ffffffffffffffffffffffffffffffffffffffff021916908373ffffffffffffffffffffffffffffffffffffffff16021790555080600a60006101000a81548173ffffffffffffffffffffffffffffffffffffffff021916908373ffffffffffffffffffffffffffffffffffffffff1602179055505050565b600080610e83610fc5565b9050610e90818585611074565b600191505092915050565b60086020528060005260406000206000915090505481565b6000600160008473ffffffffffffffffffffffffffffffffffffffff1673ffffffffffffffffffffffffffffffffffffffff16815260200190815260200160002060008373ffffffffffffffffffffffffffffffffffffffff1673ffffffffffffffffffffffffffffffffffffffff16815260200190815260200160002054905092915050565b604b81565b610f476111ea565b600073ffffffffffffffffffffffffffffffffffffffff168173ffffffffffffffffffffffffffffffffffffffff1603610fb95760006040517f1e4fbdf7000000000000000000000000000000000000000000000000000000008152600401610fb09190611a11565b60405180910390fd5b610fc281611271565b50565b600033905090565b610fda8383836001611337565b505050565b6000610feb8484610eb3565b90507fffffffffffffffffffffffffffffffffffffffffffffffffffffffffffffffff81101561106e578181101561105e578281836040517ffb8f41b200000000000000000000000000000000000000000000000000000000815260040161105593929190611e8d565b60405180910390fd5b61106d84848484036000611337565b5b50505050565b600073ffffffffffffffffffffffffffffffffffffffff168373ffffffffffffffffffffffffffffffffffffffff16036110e65760006040517f96c6fd1e0000000000000000000000000000000000000000000000000000000081526004016110dd9190611a11565b60405180910390fd5b600073ffffffffffffffffffffffffffffffffffffffff168273ffffffffffffffffffffffffffffffffffffffff16036111585760006040517fec442f0500000000000000000000000000000000000000000000000000000000815260040161114f9190611a11565b60405180910390fd5b61116383838361150e565b505050565b600073ffffffffffffffffffffffffffffffffffffffff168273ffffffffffffffffffffffffffffffffffffffff16036111da5760006040517fec442f050000000000000000000000000000000000000000000000000000000081526004016111d19190611a11565b60405180910390fd5b6111e66000838361150e565b5050565b6111f2610fc5565b73ffffffffffffffffffffffffffffffffffffffff16611210610d2e565b73ffffffffffffffffffffffffffffffffffffffff161461126f57611233610fc5565b6040517f118cdaa70000000000000000000000000000000000000000000000000000000081526004016112669190611a11565b60405180910390fd5b565b6000600560009054906101000a900473ffffffffffffffffffffffffffffffffffffffff16905081600560006101000a81548173ffffffffffffffffffffffffffffffffffffffff021916908373ffffffffffffffffffffffffffffffffffffffff1602179055508173ffffffffffffffffffffffffffffffffffffffff168173ffffffffffffffffffffffffffffffffffffffff167f8be0079c531659141344cd1fd0a4f28419497f9722a3daafe3b4186f6b6457e060405160405180910390a35050565b600073ffffffffffffffffffffffffffffffffffffffff168473ffffffffffffffffffffffffffffffffffffffff16036113a95760006040517fe602df050000000000000000000000000000000000000000000000000000000081526004016113a09190611a11565b60405180910390fd5b600073ffffffffffffffffffffffffffffffffffffffff168373ffffffffffffffffffffffffffffffffffffffff160361141b5760006040517f94280d620000000000000000000000000000000000000000000000000000000081526004016114129190611a11565b60405180910390fd5b81600160008673ffffffffffffffffffffffffffffffffffffffff1673ffffffffffffffffffffffffffffffffffffffff16815260200190815260200160002060008573ffffffffffffffffffffffffffffffffffffffff1673ffffffffffffffffffffffffffffffffffffffff168152602001908152602001600020819055508015611508578273ffffffffffffffffffffffffffffffffffffffff168473ffffffffffffffffffffffffffffffffffffffff167f8c5be1e5ebec7d5bd14f71427d1e84f3dd0314c0f7b2291e5b200ac8c7c3b925846040516114ff919061188e565b60405180910390a35b50505050565b600073ffffffffffffffffffffffffffffffffffffffff168373ffffffffffffffffffffffffffffffffffffffff16036115605780600260008282546115549190611bd3565b92505081905550611633565b60008060008573ffffffffffffffffffffffffffffffffffffffff1673ffffffffffffffffffffffffffffffffffffffff168152602001908152602001600020549050818110156115ec578381836040517fe450d38c0000000000000000000000000000000000000000000000000000000081526004016115e393929190611e8d565b60405180910390fd5b8181036000808673ffffffffffffffffffffffffffffffffffffffff1673ffffffffffffffffffffffffffffffffffffffff16815260200190815260200160002081905550505b600073ffffffffffffffffffffffffffffffffffffffff168273ffffffffffffffffffffffffffffffffffffffff160361167c57806002600082825403925050819055506116c9565b806000808473ffffffffffffffffffffffffffffffffffffffff1673ffffffffffffffffffffffffffffffffffffffff168152602001908152602001600020600082825401925050819055505b8173ffffffffffffffffffffffffffffffffffffffff168373ffffffffffffffffffffffffffffffffffffffff167fddf252ad1be2c89b69c2b068fc378daa952ba7f163c4a11628f55a4df523b3ef83604051611726919061188e565b60405180910390a3505050565b600081519050919050565b600082825260208201905092915050565b60005b8381101561176d578082015181840152602081019050611752565b60008484015250505050565b6000601f19601f8301169050919050565b600061179582611733565b61179f818561173e565b93506117af81856020860161174f565b6117b881611779565b840191505092915050565b600060208201905081810360008301526117dd818461178a565b905092915050565b600080fd5b600073ffffffffffffffffffffffffffffffffffffffff82169050919050565b6000611815826117ea565b9050919050565b6118258161180a565b811461183057600080fd5b50565b6000813590506118428161181c565b92915050565b60006020828403121561185e5761185d6117e5565b5b600061186c84828501611833565b91505092915050565b6000819050919050565b61188881611875565b82525050565b60006020820190506118a3600083018461187f565b92915050565b6118b281611875565b81146118bd57600080fd5b50565b6000813590506118cf816118a9565b92915050565b600080604083850312156118ec576118eb6117e5565b5b60006118fa85828601611833565b925050602061190b858286016118c0565b9150509250929050565b60008115159050919050565b61192a81611915565b82525050565b60006020820190506119456000830184611921565b92915050565b600060208284031215611961576119606117e5565b5b600061196f848285016118c0565b91505092915050565b600080600060608486031215611991576119906117e5565b5b600061199f86828701611833565b93505060206119b086828701611833565b92505060406119c1868287016118c0565b9150509250925092565b600060ff82169050919050565b6119e1816119cb565b82525050565b60006020820190506119fc60008301846119d8565b92915050565b611a0b8161180a565b82525050565b6000602082019050611a266000830184611a02565b92915050565b60008060408385031215611a4357611a426117e5565b5b6000611a5185828601611833565b9250506020611a6285828601611833565b9150509250929050565b7f4e487b7100000000000000000000000000000000000000000000000000000000600052602260045260246000fd5b60006002820490506001821680611ab357607f821691505b602082108103611ac657611ac5611a6c565b5b50919050565b7f4255525220746f6b656e206e6f74207365740000000000000000000000000000600082015250565b6000611b0260128361173e565b9150611b0d82611acc565b602082019050919050565b60006020820190508181036000830152611b3181611af5565b9050919050565b7f416d6f756e74206d7573742062652067726561746572207468616e2030000000600082015250565b6000611b6e601d8361173e565b9150611b7982611b38565b602082019050919050565b60006020820190508181036000830152611b9d81611b61565b9050919050565b7f4e487b7100000000000000000000000000000000000000000000000000000000600052601160045260246000fd5b6000611bde82611875565b9150611be983611875565b9250828201905080821115611c0157611c00611ba4565b5b92915050565b6000611c1282611875565b9150611c1d83611875565b9250828203905081811115611c3557611c34611ba4565b5b92915050565b7f4e6f2074696d6520706173736564000000000000000000000000000000000000600082015250565b6000611c71600e8361173e565b9150611c7c82611c3b565b602082019050919050565b60006020820190508181036000830152611ca081611c64565b9050919050565b6000611cb282611875565b9150611cbd83611875565b9250828202611ccb81611875565b91508282048414831517611ce257611ce1611ba4565b5b5092915050565b7f4e487b7100000000000000000000000000000000000000000000000000000000600052601260045260246000fd5b6000611d2382611875565b9150611d2e83611875565b925082611d3e57611d3d611ce9565b5b828204905092915050565b7f4e6f206561726e696e677320746f20636c61696d000000000000000000000000600082015250565b6000611d7f60148361173e565b9150611d8a82611d49565b602082019050919050565b60006020820190508181036000830152611dae81611d72565b9050919050565b7f4d696e696d756d20302e30312045544820726571756972656400000000000000600082015250565b6000611deb60198361173e565b9150611df682611db5565b602082019050919050565b60006020820190508181036000830152611e1a81611dde565b9050919050565b7f4755474f20746f6b656e206e6f74207365740000000000000000000000000000600082015250565b6000611e5760128361173e565b9150611e6282611e21565b602082019050919050565b60006020820190508181036000830152611e8681611e4a565b9050919050565b6000606082019050611ea26000830186611a02565b611eaf602083018561187f565b611ebc604083018461187f565b94935050505056fea26469706673582212202c294e71462ef2cb4b52e7fc01b1ee0d64171ac491e4a44f44c6d5351d2cdd1164736f6c63430008140033",
  "linkReferences": {},
  "deployedLinkReferences": {}
}